{
  "_format": "hh-sol-artifact-1",
  "contractName": "City",
  "sourceName": "contracts/City.sol",
  "abi": [
    {
      "inputs": [],
      "stateMutability": "nonpayable",
      "type": "constructor"
    },
    {
      "anonymous": false,
      "inputs": [
        {
          "indexed": true,
          "internalType": "address",
          "name": "owner",
          "type": "address"
        },
        {
          "indexed": true,
          "internalType": "address",
          "name": "approved",
          "type": "address"
        },
        {
          "indexed": true,
          "internalType": "uint256",
          "name": "tokenId",
          "type": "uint256"
        }
      ],
      "name": "Approval",
      "type": "event"
    },
    {
      "anonymous": false,
      "inputs": [
        {
          "indexed": true,
          "internalType": "address",
          "name": "owner",
          "type": "address"
        },
        {
          "indexed": true,
          "internalType": "address",
          "name": "operator",
          "type": "address"
        },
        {
          "indexed": false,
          "internalType": "bool",
          "name": "approved",
          "type": "bool"
        }
      ],
      "name": "ApprovalForAll",
      "type": "event"
    },
    {
      "anonymous": false,
      "inputs": [
        {
          "indexed": true,
          "internalType": "address",
          "name": "previousOwner",
          "type": "address"
        },
        {
          "indexed": true,
          "internalType": "address",
          "name": "newOwner",
          "type": "address"
        }
      ],
      "name": "OwnershipTransferred",
      "type": "event"
    },
    {
      "anonymous": false,
      "inputs": [
        {
          "indexed": true,
          "internalType": "address",
          "name": "from",
          "type": "address"
        },
        {
          "indexed": true,
          "internalType": "address",
          "name": "to",
          "type": "address"
        },
        {
          "indexed": true,
          "internalType": "uint256",
          "name": "tokenId",
          "type": "uint256"
        }
      ],
      "name": "Transfer",
      "type": "event"
    },
    {
      "inputs": [],
      "name": "TOTAL_SUPPLY",
      "outputs": [
        {
          "internalType": "uint256",
          "name": "",
          "type": "uint256"
        }
      ],
      "stateMutability": "view",
      "type": "function"
    },
    {
      "inputs": [
        {
          "internalType": "address",
          "name": "to",
          "type": "address"
        },
        {
          "internalType": "uint256",
          "name": "tokenId",
          "type": "uint256"
        }
      ],
      "name": "approve",
      "outputs": [],
      "stateMutability": "nonpayable",
      "type": "function"
    },
    {
      "inputs": [
        {
          "internalType": "address",
          "name": "owner",
          "type": "address"
        }
      ],
      "name": "balanceOf",
      "outputs": [
        {
          "internalType": "uint256",
          "name": "",
          "type": "uint256"
        }
      ],
      "stateMutability": "view",
      "type": "function"
    },
    {
      "inputs": [],
      "name": "baseTokenURI",
      "outputs": [
        {
          "internalType": "string",
          "name": "",
          "type": "string"
        }
      ],
      "stateMutability": "view",
      "type": "function"
    },
    {
      "inputs": [
        {
          "internalType": "uint256",
          "name": "tokenId",
          "type": "uint256"
        }
      ],
      "name": "getApproved",
      "outputs": [
        {
          "internalType": "address",
          "name": "",
          "type": "address"
        }
      ],
      "stateMutability": "view",
      "type": "function"
    },
    {
      "inputs": [],
      "name": "getCurrentToken",
      "outputs": [
        {
          "internalType": "uint256",
          "name": "",
          "type": "uint256"
        }
      ],
      "stateMutability": "view",
      "type": "function"
    },
    {
      "inputs": [
        {
          "internalType": "uint256",
          "name": "tokenId",
          "type": "uint256"
        }
      ],
      "name": "getTokenValue",
      "outputs": [
        {
          "internalType": "uint256",
          "name": "",
          "type": "uint256"
        }
      ],
      "stateMutability": "view",
      "type": "function"
    },
    {
      "inputs": [
        {
          "internalType": "address",
          "name": "owner",
          "type": "address"
        },
        {
          "internalType": "address",
          "name": "operator",
          "type": "address"
        }
      ],
      "name": "isApprovedForAll",
      "outputs": [
        {
          "internalType": "bool",
          "name": "",
          "type": "bool"
        }
      ],
      "stateMutability": "view",
      "type": "function"
    },
    {
      "inputs": [
        {
          "internalType": "address",
          "name": "recipient",
          "type": "address"
        },
        {
          "internalType": "uint256",
          "name": "value",
          "type": "uint256"
        }
      ],
      "name": "mintTo",
      "outputs": [
        {
          "internalType": "uint256",
          "name": "",
          "type": "uint256"
        }
      ],
      "stateMutability": "payable",
      "type": "function"
    },
    {
      "inputs": [],
      "name": "name",
      "outputs": [
        {
          "internalType": "string",
          "name": "",
          "type": "string"
        }
      ],
      "stateMutability": "view",
      "type": "function"
    },
    {
      "inputs": [],
      "name": "owner",
      "outputs": [
        {
          "internalType": "address",
          "name": "",
          "type": "address"
        }
      ],
      "stateMutability": "view",
      "type": "function"
    },
    {
      "inputs": [
        {
          "internalType": "uint256",
          "name": "tokenId",
          "type": "uint256"
        }
      ],
      "name": "ownerOf",
      "outputs": [
        {
          "internalType": "address",
          "name": "",
          "type": "address"
        }
      ],
      "stateMutability": "view",
      "type": "function"
    },
    {
      "inputs": [
        {
          "internalType": "address",
          "name": "dest",
          "type": "address"
        }
      ],
      "name": "payments",
      "outputs": [
        {
          "internalType": "uint256",
          "name": "",
          "type": "uint256"
        }
      ],
      "stateMutability": "view",
      "type": "function"
    },
    {
      "inputs": [],
      "name": "renounceOwnership",
      "outputs": [],
      "stateMutability": "nonpayable",
      "type": "function"
    },
    {
      "inputs": [
        {
          "internalType": "address",
          "name": "from",
          "type": "address"
        },
        {
          "internalType": "address",
          "name": "to",
          "type": "address"
        },
        {
          "internalType": "uint256",
          "name": "tokenId",
          "type": "uint256"
        }
      ],
      "name": "safeTransferFrom",
      "outputs": [],
      "stateMutability": "nonpayable",
      "type": "function"
    },
    {
      "inputs": [
        {
          "internalType": "address",
          "name": "from",
          "type": "address"
        },
        {
          "internalType": "address",
          "name": "to",
          "type": "address"
        },
        {
          "internalType": "uint256",
          "name": "tokenId",
          "type": "uint256"
        },
        {
          "internalType": "bytes",
          "name": "data",
          "type": "bytes"
        }
      ],
      "name": "safeTransferFrom",
      "outputs": [],
      "stateMutability": "nonpayable",
      "type": "function"
    },
    {
      "inputs": [
        {
          "internalType": "address",
          "name": "operator",
          "type": "address"
        },
        {
          "internalType": "bool",
          "name": "approved",
          "type": "bool"
        }
      ],
      "name": "setApprovalForAll",
      "outputs": [],
      "stateMutability": "nonpayable",
      "type": "function"
    },
    {
      "inputs": [
        {
          "internalType": "string",
          "name": "_baseTokenURI",
          "type": "string"
        }
      ],
      "name": "setBaseTokenURI",
      "outputs": [],
      "stateMutability": "nonpayable",
      "type": "function"
    },
    {
      "inputs": [
        {
          "internalType": "bytes4",
          "name": "interfaceId",
          "type": "bytes4"
        }
      ],
      "name": "supportsInterface",
      "outputs": [
        {
          "internalType": "bool",
          "name": "",
          "type": "bool"
        }
      ],
      "stateMutability": "view",
      "type": "function"
    },
    {
      "inputs": [],
      "name": "symbol",
      "outputs": [
        {
          "internalType": "string",
          "name": "",
          "type": "string"
        }
      ],
      "stateMutability": "view",
      "type": "function"
    },
    {
      "inputs": [
        {
          "internalType": "uint256",
          "name": "tokenId",
          "type": "uint256"
        }
      ],
      "name": "tokenURI",
      "outputs": [
        {
          "internalType": "string",
          "name": "",
          "type": "string"
        }
      ],
      "stateMutability": "view",
      "type": "function"
    },
    {
      "inputs": [
        {
          "internalType": "uint256",
          "name": "",
          "type": "uint256"
        }
      ],
      "name": "tokenValue",
      "outputs": [
        {
          "internalType": "uint256",
          "name": "",
          "type": "uint256"
        }
      ],
      "stateMutability": "view",
      "type": "function"
    },
    {
      "inputs": [
        {
          "internalType": "address",
          "name": "from",
          "type": "address"
        },
        {
          "internalType": "address",
          "name": "to",
          "type": "address"
        },
        {
          "internalType": "uint256",
          "name": "tokenId",
          "type": "uint256"
        }
      ],
      "name": "transferFrom",
      "outputs": [],
      "stateMutability": "nonpayable",
      "type": "function"
    },
    {
      "inputs": [
        {
          "internalType": "address",
          "name": "newOwner",
          "type": "address"
        }
      ],
      "name": "transferOwnership",
      "outputs": [],
      "stateMutability": "nonpayable",
      "type": "function"
    },
    {
      "inputs": [
        {
          "internalType": "address payable",
          "name": "payee",
          "type": "address"
        }
      ],
      "name": "withdrawPayments",
      "outputs": [],
      "stateMutability": "nonpayable",
      "type": "function"
    }
  ],
  "bytecode": "0x60a060405242600a553480156200001557600080fd5b506040518060400160405280600481526020017f43697479000000000000000000000000000000000000000000000000000000008152506040518060400160405280600381526020017f435459000000000000000000000000000000000000000000000000000000000081525081600090805190602001906200009a9291906200023e565b508060019080519060200190620000b39291906200023e565b505050604051620000c490620002cf565b604051809103906000f080158015620000e1573d6000803e3d6000fd5b5073ffffffffffffffffffffffffffffffffffffffff1660808173ffffffffffffffffffffffffffffffffffffffff1660601b81525050620001386200012c6200017060201b60201c565b6200017860201b60201c565b6040518060a0016040528060628152602001620043006062913960089080519060200190620001699291906200023e565b5062000361565b600033905090565b6000600660009054906101000a900473ffffffffffffffffffffffffffffffffffffffff16905081600660006101000a81548173ffffffffffffffffffffffffffffffffffffffff021916908373ffffffffffffffffffffffffffffffffffffffff1602179055508173ffffffffffffffffffffffffffffffffffffffff168173ffffffffffffffffffffffffffffffffffffffff167f8be0079c531659141344cd1fd0a4f28419497f9722a3daafe3b4186f6b6457e060405160405180910390a35050565b8280546200024c90620002fc565b90600052602060002090601f016020900481019282620002705760008555620002bc565b82601f106200028b57805160ff1916838001178555620002bc565b82800160010185558215620002bc579182015b82811115620002bb5782518255916020019190600101906200029e565b5b509050620002cb9190620002dd565b5090565b610bb7806200374983390190565b5b80821115620002f8576000816000905550600101620002de565b5090565b600060028204905060018216806200031557607f821691505b602082108114156200032c576200032b62000332565b5b50919050565b7f4e487b7100000000000000000000000000000000000000000000000000000000600052602260045260246000fd5b60805160601c6133c26200038760003960008181610ec2015261158b01526133c26000f3fe6080604052600436106101665760003560e01c80638da5cb5b116100d1578063cb9144911161008a578063e2982c2111610064578063e2982c2114610553578063e985e9c514610590578063ef2d1746146105cd578063f2fde38b146105f857610166565b8063cb914491146104ae578063d10424c7146104eb578063d547cfb71461052857610166565b80638da5cb5b1461039e578063902d55a5146103c957806395d89b41146103f4578063a22cb4651461041f578063b88d4fde14610448578063c87b56dd1461047157610166565b806331b3eb941161012357806331b3eb941461028b57806342842e0e146102b4578063449a52f8146102dd5780636352211e1461030d57806370a082311461034a578063715018a61461038757610166565b806301ffc9a71461016b57806306fdde03146101a8578063081812fc146101d3578063095ea7b31461021057806323b872dd1461023957806330176e1314610262575b600080fd5b34801561017757600080fd5b50610192600480360381019061018d9190612424565b610621565b60405161019f91906128be565b60405180910390f35b3480156101b457600080fd5b506101bd610703565b6040516101ca91906128d9565b60405180910390f35b3480156101df57600080fd5b506101fa60048036038101906101f591906124b7565b610795565b604051610207919061283c565b60405180910390f35b34801561021c57600080fd5b50610237600480360381019061023291906123e8565b6107db565b005b34801561024557600080fd5b50610260600480360381019061025b91906122e2565b6108f3565b005b34801561026e57600080fd5b5061028960048036038101906102849190612476565b610953565b005b34801561029757600080fd5b506102b260048036038101906102ad919061227d565b610975565b005b3480156102c057600080fd5b506102db60048036038101906102d691906122e2565b610989565b005b6102f760048036038101906102f291906123e8565b6109a9565b6040516103049190612afb565b60405180910390f35b34801561031957600080fd5b50610334600480360381019061032f91906124b7565b610adb565b604051610341919061283c565b60405180910390f35b34801561035657600080fd5b50610371600480360381019061036c9190612254565b610b8d565b60405161037e9190612afb565b60405180910390f35b34801561039357600080fd5b5061039c610c45565b005b3480156103aa57600080fd5b506103b3610c59565b6040516103c0919061283c565b60405180910390f35b3480156103d557600080fd5b506103de610c83565b6040516103eb9190612afb565b60405180910390f35b34801561040057600080fd5b50610409610c89565b60405161041691906128d9565b60405180910390f35b34801561042b57600080fd5b50610446600480360381019061044191906123ac565b610d1b565b005b34801561045457600080fd5b5061046f600480360381019061046a9190612331565b610d31565b005b34801561047d57600080fd5b50610498600480360381019061049391906124b7565b610d93565b6040516104a591906128d9565b60405180910390f35b3480156104ba57600080fd5b506104d560048036038101906104d091906124b7565b610dfb565b6040516104e29190612afb565b60405180910390f35b3480156104f757600080fd5b50610512600480360381019061050d91906124b7565b610e13565b60405161051f9190612afb565b60405180910390f35b34801561053457600080fd5b5061053d610e30565b60405161054a91906128d9565b60405180910390f35b34801561055f57600080fd5b5061057a60048036038101906105759190612254565b610ebe565b6040516105879190612afb565b60405180910390f35b34801561059c57600080fd5b506105b760048036038101906105b291906122a6565b610f70565b6040516105c491906128be565b60405180910390f35b3480156105d957600080fd5b506105e2611004565b6040516105ef9190612afb565b60405180910390f35b34801561060457600080fd5b5061061f600480360381019061061a9190612254565b611015565b005b60007f80ac58cd000000000000000000000000000000000000000000000000000000007bffffffffffffffffffffffffffffffffffffffffffffffffffffffff1916827bffffffffffffffffffffffffffffffffffffffffffffffffffffffff191614806106ec57507f5b5e139f000000000000000000000000000000000000000000000000000000007bffffffffffffffffffffffffffffffffffffffffffffffffffffffff1916827bffffffffffffffffffffffffffffffffffffffffffffffffffffffff1916145b806106fc57506106fb82611099565b5b9050919050565b60606000805461071290612d63565b80601f016020809104026020016040519081016040528092919081815260200182805461073e90612d63565b801561078b5780601f106107605761010080835404028352916020019161078b565b820191906000526020600020905b81548152906001019060200180831161076e57829003601f168201915b5050505050905090565b60006107a082611103565b6004600083815260200190815260200160002060009054906101000a900473ffffffffffffffffffffffffffffffffffffffff169050919050565b60006107e682610adb565b90508073ffffffffffffffffffffffffffffffffffffffff168373ffffffffffffffffffffffffffffffffffffffff161415610857576040517f08c379a000000000000000000000000000000000000000000000000000000000815260040161084e90612a7b565b60405180910390fd5b8073ffffffffffffffffffffffffffffffffffffffff1661087661114e565b73ffffffffffffffffffffffffffffffffffffffff1614806108a557506108a48161089f61114e565b610f70565b5b6108e4576040517f08c379a00000000000000000000000000000000000000000000000000000000081526004016108db906129fb565b60405180910390fd5b6108ee8383611156565b505050565b6109046108fe61114e565b8261120f565b610943576040517f08c379a000000000000000000000000000000000000000000000000000000000815260040161093a90612abb565b60405180910390fd5b61094e8383836112a4565b505050565b61095b61150b565b806008908051906020019061097192919061204e565b5050565b61097d61150b565b61098681611589565b50565b6109a483838360405180602001604052806000815250610d31565b505050565b6000806109b66007611617565b905061271081106109fc576040517f08c379a00000000000000000000000000000000000000000000000000000000081526004016109f390612a9b565b60405180910390fd5b823414610a3e576040517f08c379a0000000000000000000000000000000000000000000000000000000008152600401610a35906129bb565b60405180910390fd5b6000600a5442610a4e9190612c67565b9050610a5981611625565b601e811015610a9d576040517f08c379a0000000000000000000000000000000000000000000000000000000008152600401610a9490612adb565b60405180910390fd5b610aa785836116be565b836009600084815260200190815260200160002081905550610ac960076116dc565b42600a81905550819250505092915050565b6000806002600084815260200190815260200160002060009054906101000a900473ffffffffffffffffffffffffffffffffffffffff169050600073ffffffffffffffffffffffffffffffffffffffff168173ffffffffffffffffffffffffffffffffffffffff161415610b84576040517f08c379a0000000000000000000000000000000000000000000000000000000008152600401610b7b90612a5b565b60405180910390fd5b80915050919050565b60008073ffffffffffffffffffffffffffffffffffffffff168273ffffffffffffffffffffffffffffffffffffffff161415610bfe576040517f08c379a0000000000000000000000000000000000000000000000000000000008152600401610bf5906129db565b60405180910390fd5b600360008373ffffffffffffffffffffffffffffffffffffffff1673ffffffffffffffffffffffffffffffffffffffff168152602001908152602001600020549050919050565b610c4d61150b565b610c5760006116f2565b565b6000600660009054906101000a900473ffffffffffffffffffffffffffffffffffffffff16905090565b61271081565b606060018054610c9890612d63565b80601f0160208091040260200160405190810160405280929190818152602001828054610cc490612d63565b8015610d115780601f10610ce657610100808354040283529160200191610d11565b820191906000526020600020905b815481529060010190602001808311610cf457829003601f168201915b5050505050905090565b610d2d610d2661114e565b83836117b8565b5050565b610d42610d3c61114e565b8361120f565b610d81576040517f08c379a0000000000000000000000000000000000000000000000000000000008152600401610d7890612abb565b60405180910390fd5b610d8d84848484611925565b50505050565b6060610d9e82611103565b6000610da8611981565b90506000815111610dc85760405180602001604052806000815250610df3565b80610dd284611a13565b604051602001610de3929190612818565b6040516020818303038152906040525b915050919050565b60096020528060005260406000206000915090505481565b600060096000838152602001908152602001600020549050919050565b60088054610e3d90612d63565b80601f0160208091040260200160405190810160405280929190818152602001828054610e6990612d63565b8015610eb65780601f10610e8b57610100808354040283529160200191610eb6565b820191906000526020600020905b815481529060010190602001808311610e9957829003601f168201915b505050505081565b60007f000000000000000000000000000000000000000000000000000000000000000073ffffffffffffffffffffffffffffffffffffffff1663e3a9db1a836040518263ffffffff1660e01b8152600401610f19919061283c565b60206040518083038186803b158015610f3157600080fd5b505afa158015610f45573d6000803e3d6000fd5b505050506040513d601f19601f82011682018060405250810190610f6991906124e0565b9050919050565b6000600560008473ffffffffffffffffffffffffffffffffffffffff1673ffffffffffffffffffffffffffffffffffffffff16815260200190815260200160002060008373ffffffffffffffffffffffffffffffffffffffff1673ffffffffffffffffffffffffffffffffffffffff16815260200190815260200160002060009054906101000a900460ff16905092915050565b60006110106007611617565b905090565b61101d61150b565b600073ffffffffffffffffffffffffffffffffffffffff168173ffffffffffffffffffffffffffffffffffffffff16141561108d576040517f08c379a00000000000000000000000000000000000000000000000000000000081526004016110849061291b565b60405180910390fd5b611096816116f2565b50565b60007f01ffc9a7000000000000000000000000000000000000000000000000000000007bffffffffffffffffffffffffffffffffffffffffffffffffffffffff1916827bffffffffffffffffffffffffffffffffffffffffffffffffffffffff1916149050919050565b61110c81611bc0565b61114b576040517f08c379a000000000000000000000000000000000000000000000000000000000815260040161114290612a5b565b60405180910390fd5b50565b600033905090565b816004600083815260200190815260200160002060006101000a81548173ffffffffffffffffffffffffffffffffffffffff021916908373ffffffffffffffffffffffffffffffffffffffff160217905550808273ffffffffffffffffffffffffffffffffffffffff166111c983610adb565b73ffffffffffffffffffffffffffffffffffffffff167f8c5be1e5ebec7d5bd14f71427d1e84f3dd0314c0f7b2291e5b200ac8c7c3b92560405160405180910390a45050565b60008061121b83610adb565b90508073ffffffffffffffffffffffffffffffffffffffff168473ffffffffffffffffffffffffffffffffffffffff16148061125d575061125c8185610f70565b5b8061129b57508373ffffffffffffffffffffffffffffffffffffffff1661128384610795565b73ffffffffffffffffffffffffffffffffffffffff16145b91505092915050565b8273ffffffffffffffffffffffffffffffffffffffff166112c482610adb565b73ffffffffffffffffffffffffffffffffffffffff161461131a576040517f08c379a00000000000000000000000000000000000000000000000000000000081526004016113119061293b565b60405180910390fd5b600073ffffffffffffffffffffffffffffffffffffffff168273ffffffffffffffffffffffffffffffffffffffff16141561138a576040517f08c379a00000000000000000000000000000000000000000000000000000000081526004016113819061297b565b60405180910390fd5b611395838383611c2c565b6113a0600082611156565b6001600360008573ffffffffffffffffffffffffffffffffffffffff1673ffffffffffffffffffffffffffffffffffffffff16815260200190815260200160002060008282546113f09190612c67565b925050819055506001600360008473ffffffffffffffffffffffffffffffffffffffff1673ffffffffffffffffffffffffffffffffffffffff16815260200190815260200160002060008282546114479190612be0565b92505081905550816002600083815260200190815260200160002060006101000a81548173ffffffffffffffffffffffffffffffffffffffff021916908373ffffffffffffffffffffffffffffffffffffffff160217905550808273ffffffffffffffffffffffffffffffffffffffff168473ffffffffffffffffffffffffffffffffffffffff167fddf252ad1be2c89b69c2b068fc378daa952ba7f163c4a11628f55a4df523b3ef60405160405180910390a4611506838383611c31565b505050565b61151361114e565b73ffffffffffffffffffffffffffffffffffffffff16611531610c59565b73ffffffffffffffffffffffffffffffffffffffff1614611587576040517f08c379a000000000000000000000000000000000000000000000000000000000815260040161157e90612a3b565b60405180910390fd5b565b7f000000000000000000000000000000000000000000000000000000000000000073ffffffffffffffffffffffffffffffffffffffff166351cff8d9826040518263ffffffff1660e01b81526004016115e29190612857565b600060405180830381600087803b1580156115fc57600080fd5b505af1158015611610573d6000803e3d6000fd5b5050505050565b600081600001549050919050565b6116bb816040516024016116399190612afb565b6040516020818303038152906040527ff82c50f1000000000000000000000000000000000000000000000000000000007bffffffffffffffffffffffffffffffffffffffffffffffffffffffff19166020820180517bffffffffffffffffffffffffffffffffffffffffffffffffffffffff8381831617835250505050611c36565b50565b6116d8828260405180602001604052806000815250611c5f565b5050565b6001816000016000828254019250508190555050565b6000600660009054906101000a900473ffffffffffffffffffffffffffffffffffffffff16905081600660006101000a81548173ffffffffffffffffffffffffffffffffffffffff021916908373ffffffffffffffffffffffffffffffffffffffff1602179055508173ffffffffffffffffffffffffffffffffffffffff168173ffffffffffffffffffffffffffffffffffffffff167f8be0079c531659141344cd1fd0a4f28419497f9722a3daafe3b4186f6b6457e060405160405180910390a35050565b8173ffffffffffffffffffffffffffffffffffffffff168373ffffffffffffffffffffffffffffffffffffffff161415611827576040517f08c379a000000000000000000000000000000000000000000000000000000000815260040161181e9061299b565b60405180910390fd5b80600560008573ffffffffffffffffffffffffffffffffffffffff1673ffffffffffffffffffffffffffffffffffffffff16815260200190815260200160002060008473ffffffffffffffffffffffffffffffffffffffff1673ffffffffffffffffffffffffffffffffffffffff16815260200190815260200160002060006101000a81548160ff0219169083151502179055508173ffffffffffffffffffffffffffffffffffffffff168373ffffffffffffffffffffffffffffffffffffffff167f17307eab39ab6107e8899845ad3d59bd9653f200f220920489ca2b5937696c318360405161191891906128be565b60405180910390a3505050565b6119308484846112a4565b61193c84848484611cba565b61197b576040517f08c379a0000000000000000000000000000000000000000000000000000000008152600401611972906128fb565b60405180910390fd5b50505050565b60606008805461199090612d63565b80601f01602080910402602001604051908101604052809291908181526020018280546119bc90612d63565b8015611a095780601f106119de57610100808354040283529160200191611a09565b820191906000526020600020905b8154815290600101906020018083116119ec57829003601f168201915b5050505050905090565b60606000821415611a5b576040518060400160405280600181526020017f30000000000000000000000000000000000000000000000000000000000000008152509050611bbb565b600082905060005b60008214611a8d578080611a7690612dc6565b915050600a82611a869190612c36565b9150611a63565b60008167ffffffffffffffff811115611acf577f4e487b7100000000000000000000000000000000000000000000000000000000600052604160045260246000fd5b6040519080825280601f01601f191660200182016040528015611b015781602001600182028036833780820191505090505b5090505b60008514611bb457600182611b1a9190612c67565b9150600a85611b299190612e0f565b6030611b359190612be0565b60f81b818381518110611b71577f4e487b7100000000000000000000000000000000000000000000000000000000600052603260045260246000fd5b60200101907effffffffffffffffffffffffffffffffffffffffffffffffffffffffffffff1916908160001a905350600a85611bad9190612c36565b9450611b05565b8093505050505b919050565b60008073ffffffffffffffffffffffffffffffffffffffff166002600084815260200190815260200160002060009054906101000a900473ffffffffffffffffffffffffffffffffffffffff1673ffffffffffffffffffffffffffffffffffffffff1614159050919050565b505050565b505050565b60008151905060006a636f6e736f6c652e6c6f679050602083016000808483855afa5050505050565b611c698383611e51565b611c766000848484611cba565b611cb5576040517f08c379a0000000000000000000000000000000000000000000000000000000008152600401611cac906128fb565b60405180910390fd5b505050565b6000611cdb8473ffffffffffffffffffffffffffffffffffffffff1661202b565b15611e44578373ffffffffffffffffffffffffffffffffffffffff1663150b7a02611d0461114e565b8786866040518563ffffffff1660e01b8152600401611d269493929190612872565b602060405180830381600087803b158015611d4057600080fd5b505af1925050508015611d7157506040513d601f19601f82011682018060405250810190611d6e919061244d565b60015b611df4573d8060008114611da1576040519150601f19603f3d011682016040523d82523d6000602084013e611da6565b606091505b50600081511415611dec576040517f08c379a0000000000000000000000000000000000000000000000000000000008152600401611de3906128fb565b60405180910390fd5b805181602001fd5b63150b7a0260e01b7bffffffffffffffffffffffffffffffffffffffffffffffffffffffff1916817bffffffffffffffffffffffffffffffffffffffffffffffffffffffff191614915050611e49565b600190505b949350505050565b600073ffffffffffffffffffffffffffffffffffffffff168273ffffffffffffffffffffffffffffffffffffffff161415611ec1576040517f08c379a0000000000000000000000000000000000000000000000000000000008152600401611eb890612a1b565b60405180910390fd5b611eca81611bc0565b15611f0a576040517f08c379a0000000000000000000000000000000000000000000000000000000008152600401611f019061295b565b60405180910390fd5b611f1660008383611c2c565b6001600360008473ffffffffffffffffffffffffffffffffffffffff1673ffffffffffffffffffffffffffffffffffffffff1681526020019081526020016000206000828254611f669190612be0565b92505081905550816002600083815260200190815260200160002060006101000a81548173ffffffffffffffffffffffffffffffffffffffff021916908373ffffffffffffffffffffffffffffffffffffffff160217905550808273ffffffffffffffffffffffffffffffffffffffff16600073ffffffffffffffffffffffffffffffffffffffff167fddf252ad1be2c89b69c2b068fc378daa952ba7f163c4a11628f55a4df523b3ef60405160405180910390a461202760008383611c31565b5050565b6000808273ffffffffffffffffffffffffffffffffffffffff163b119050919050565b82805461205a90612d63565b90600052602060002090601f01602090048101928261207c57600085556120c3565b82601f1061209557805160ff19168380011785556120c3565b828001600101855582156120c3579182015b828111156120c25782518255916020019190600101906120a7565b5b5090506120d091906120d4565b5090565b5b808211156120ed5760008160009055506001016120d5565b5090565b60006121046120ff84612b3b565b612b16565b90508281526020810184848401111561211c57600080fd5b612127848285612d21565b509392505050565b600061214261213d84612b6c565b612b16565b90508281526020810184848401111561215a57600080fd5b612165848285612d21565b509392505050565b60008135905061217c81613319565b92915050565b60008135905061219181613330565b92915050565b6000813590506121a681613347565b92915050565b6000813590506121bb8161335e565b92915050565b6000815190506121d08161335e565b92915050565b600082601f8301126121e757600080fd5b81356121f78482602086016120f1565b91505092915050565b600082601f83011261221157600080fd5b813561222184826020860161212f565b91505092915050565b60008135905061223981613375565b92915050565b60008151905061224e81613375565b92915050565b60006020828403121561226657600080fd5b60006122748482850161216d565b91505092915050565b60006020828403121561228f57600080fd5b600061229d84828501612182565b91505092915050565b600080604083850312156122b957600080fd5b60006122c78582860161216d565b92505060206122d88582860161216d565b9150509250929050565b6000806000606084860312156122f757600080fd5b60006123058682870161216d565b93505060206123168682870161216d565b92505060406123278682870161222a565b9150509250925092565b6000806000806080858703121561234757600080fd5b60006123558782880161216d565b94505060206123668782880161216d565b93505060406123778782880161222a565b925050606085013567ffffffffffffffff81111561239457600080fd5b6123a0878288016121d6565b91505092959194509250565b600080604083850312156123bf57600080fd5b60006123cd8582860161216d565b92505060206123de85828601612197565b9150509250929050565b600080604083850312156123fb57600080fd5b60006124098582860161216d565b925050602061241a8582860161222a565b9150509250929050565b60006020828403121561243657600080fd5b6000612444848285016121ac565b91505092915050565b60006020828403121561245f57600080fd5b600061246d848285016121c1565b91505092915050565b60006020828403121561248857600080fd5b600082013567ffffffffffffffff8111156124a257600080fd5b6124ae84828501612200565b91505092915050565b6000602082840312156124c957600080fd5b60006124d78482850161222a565b91505092915050565b6000602082840312156124f257600080fd5b60006125008482850161223f565b91505092915050565b61251281612cad565b82525050565b61252181612c9b565b82525050565b61253081612cbf565b82525050565b600061254182612b9d565b61254b8185612bb3565b935061255b818560208601612d30565b61256481612efc565b840191505092915050565b600061257a82612ba8565b6125848185612bc4565b9350612594818560208601612d30565b61259d81612efc565b840191505092915050565b60006125b382612ba8565b6125bd8185612bd5565b93506125cd818560208601612d30565b80840191505092915050565b60006125e6603283612bc4565b91506125f182612f0d565b604082019050919050565b6000612609602683612bc4565b915061261482612f5c565b604082019050919050565b600061262c602583612bc4565b915061263782612fab565b604082019050919050565b600061264f601c83612bc4565b915061265a82612ffa565b602082019050919050565b6000612672602483612bc4565b915061267d82613023565b604082019050919050565b6000612695601983612bc4565b91506126a082613072565b602082019050919050565b60006126b8602f83612bc4565b91506126c38261309b565b604082019050919050565b60006126db602983612bc4565b91506126e6826130ea565b604082019050919050565b60006126fe603e83612bc4565b915061270982613139565b604082019050919050565b6000612721602083612bc4565b915061272c82613188565b602082019050919050565b6000612744602083612bc4565b915061274f826131b1565b602082019050919050565b6000612767601883612bc4565b9150612772826131da565b602082019050919050565b600061278a602183612bc4565b915061279582613203565b604082019050919050565b60006127ad601283612bc4565b91506127b882613252565b602082019050919050565b60006127d0602e83612bc4565b91506127db8261327b565b604082019050919050565b60006127f3602683612bc4565b91506127fe826132ca565b604082019050919050565b61281281612d17565b82525050565b600061282482856125a8565b915061283082846125a8565b91508190509392505050565b60006020820190506128516000830184612518565b92915050565b600060208201905061286c6000830184612509565b92915050565b60006080820190506128876000830187612518565b6128946020830186612518565b6128a16040830185612809565b81810360608301526128b38184612536565b905095945050505050565b60006020820190506128d36000830184612527565b92915050565b600060208201905081810360008301526128f3818461256f565b905092915050565b60006020820190508181036000830152612914816125d9565b9050919050565b60006020820190508181036000830152612934816125fc565b9050919050565b600060208201905081810360008301526129548161261f565b9050919050565b6000602082019050818103600083015261297481612642565b9050919050565b6000602082019050818103600083015261299481612665565b9050919050565b600060208201905081810360008301526129b481612688565b9050919050565b600060208201905081810360008301526129d4816126ab565b9050919050565b600060208201905081810360008301526129f4816126ce565b9050919050565b60006020820190508181036000830152612a14816126f1565b9050919050565b60006020820190508181036000830152612a3481612714565b9050919050565b60006020820190508181036000830152612a5481612737565b9050919050565b60006020820190508181036000830152612a748161275a565b9050919050565b60006020820190508181036000830152612a948161277d565b9050919050565b60006020820190508181036000830152612ab4816127a0565b9050919050565b60006020820190508181036000830152612ad4816127c3565b9050919050565b60006020820190508181036000830152612af4816127e6565b9050919050565b6000602082019050612b106000830184612809565b92915050565b6000612b20612b31565b9050612b2c8282612d95565b919050565b6000604051905090565b600067ffffffffffffffff821115612b5657612b55612ecd565b5b612b5f82612efc565b9050602081019050919050565b600067ffffffffffffffff821115612b8757612b86612ecd565b5b612b9082612efc565b9050602081019050919050565b600081519050919050565b600081519050919050565b600082825260208201905092915050565b600082825260208201905092915050565b600081905092915050565b6000612beb82612d17565b9150612bf683612d17565b9250827fffffffffffffffffffffffffffffffffffffffffffffffffffffffffffffffff03821115612c2b57612c2a612e40565b5b828201905092915050565b6000612c4182612d17565b9150612c4c83612d17565b925082612c5c57612c5b612e6f565b5b828204905092915050565b6000612c7282612d17565b9150612c7d83612d17565b925082821015612c9057612c8f612e40565b5b828203905092915050565b6000612ca682612cf7565b9050919050565b6000612cb882612cf7565b9050919050565b60008115159050919050565b60007fffffffff0000000000000000000000000000000000000000000000000000000082169050919050565b600073ffffffffffffffffffffffffffffffffffffffff82169050919050565b6000819050919050565b82818337600083830152505050565b60005b83811015612d4e578082015181840152602081019050612d33565b83811115612d5d576000848401525b50505050565b60006002820490506001821680612d7b57607f821691505b60208210811415612d8f57612d8e612e9e565b5b50919050565b612d9e82612efc565b810181811067ffffffffffffffff82111715612dbd57612dbc612ecd565b5b80604052505050565b6000612dd182612d17565b91507fffffffffffffffffffffffffffffffffffffffffffffffffffffffffffffffff821415612e0457612e03612e40565b5b600182019050919050565b6000612e1a82612d17565b9150612e2583612d17565b925082612e3557612e34612e6f565b5b828206905092915050565b7f4e487b7100000000000000000000000000000000000000000000000000000000600052601160045260246000fd5b7f4e487b7100000000000000000000000000000000000000000000000000000000600052601260045260246000fd5b7f4e487b7100000000000000000000000000000000000000000000000000000000600052602260045260246000fd5b7f4e487b7100000000000000000000000000000000000000000000000000000000600052604160045260246000fd5b6000601f19601f8301169050919050565b7f4552433732313a207472616e7366657220746f206e6f6e20455243373231526560008201527f63656976657220696d706c656d656e7465720000000000000000000000000000602082015250565b7f4f776e61626c653a206e6577206f776e657220697320746865207a65726f206160008201527f6464726573730000000000000000000000000000000000000000000000000000602082015250565b7f4552433732313a207472616e736665722066726f6d20696e636f72726563742060008201527f6f776e6572000000000000000000000000000000000000000000000000000000602082015250565b7f4552433732313a20746f6b656e20616c7265616479206d696e74656400000000600082015250565b7f4552433732313a207472616e7366657220746f20746865207a65726f2061646460008201527f7265737300000000000000000000000000000000000000000000000000000000602082015250565b7f4552433732313a20617070726f766520746f2063616c6c657200000000000000600082015250565b7f5472616e73616374696f6e2076616c756520646964206e6f7420657175616c2060008201527f7468652076616c756520676976656e0000000000000000000000000000000000602082015250565b7f4552433732313a2061646472657373207a65726f206973206e6f74206120766160008201527f6c6964206f776e65720000000000000000000000000000000000000000000000602082015250565b7f4552433732313a20617070726f76652063616c6c6572206973206e6f7420746f60008201527f6b656e206f776e6572206e6f7220617070726f76656420666f7220616c6c0000602082015250565b7f4552433732313a206d696e7420746f20746865207a65726f2061646472657373600082015250565b7f4f776e61626c653a2063616c6c6572206973206e6f7420746865206f776e6572600082015250565b7f4552433732313a20696e76616c696420746f6b656e2049440000000000000000600082015250565b7f4552433732313a20617070726f76616c20746f2063757272656e74206f776e6560008201527f7200000000000000000000000000000000000000000000000000000000000000602082015250565b7f4d617820737570706c7920726561636865640000000000000000000000000000600082015250565b7f4552433732313a2063616c6c6572206973206e6f7420746f6b656e206f776e6560008201527f72206e6f7220617070726f766564000000000000000000000000000000000000602082015250565b7f4e6565642061746c6561737420323420686f757220676170206265747765656e60008201527f206d696e74730000000000000000000000000000000000000000000000000000602082015250565b61332281612c9b565b811461332d57600080fd5b50565b61333981612cad565b811461334457600080fd5b50565b61335081612cbf565b811461335b57600080fd5b50565b61336781612ccb565b811461337257600080fd5b50565b61337e81612d17565b811461338957600080fd5b5056fea2646970667358221220dcd37256bb52967f5b24d1ff0a792f14c720bcd10d8ea9c93cff53856074415d64736f6c63430008040033608060405234801561001057600080fd5b5061002d61002261003260201b60201c565b61003a60201b60201c565b6100fe565b600033905090565b60008060009054906101000a900473ffffffffffffffffffffffffffffffffffffffff169050816000806101000a81548173ffffffffffffffffffffffffffffffffffffffff021916908373ffffffffffffffffffffffffffffffffffffffff1602179055508173ffffffffffffffffffffffffffffffffffffffff168173ffffffffffffffffffffffffffffffffffffffff167f8be0079c531659141344cd1fd0a4f28419497f9722a3daafe3b4186f6b6457e060405160405180910390a35050565b610aaa8061010d6000396000f3fe6080604052600436106100555760003560e01c806351cff8d91461005a578063715018a6146100835780638da5cb5b1461009a578063e3a9db1a146100c5578063f2fde38b14610102578063f340fa011461012b575b600080fd5b34801561006657600080fd5b50610081600480360381019061007c91906106a3565b610147565b005b34801561008f57600080fd5b50610098610253565b005b3480156100a657600080fd5b506100af610267565b6040516100bc91906107ae565b60405180910390f35b3480156100d157600080fd5b506100ec60048036038101906100e7919061067a565b610290565b6040516100f99190610849565b60405180910390f35b34801561010e57600080fd5b506101296004803603810190610124919061067a565b6102d9565b005b6101456004803603810190610140919061067a565b61035d565b005b61014f610412565b6000600160008373ffffffffffffffffffffffffffffffffffffffff1673ffffffffffffffffffffffffffffffffffffffff1681526020019081526020016000205490506000600160008473ffffffffffffffffffffffffffffffffffffffff1673ffffffffffffffffffffffffffffffffffffffff16815260200190815260200160002081905550610201818373ffffffffffffffffffffffffffffffffffffffff1661049090919063ffffffff16565b8173ffffffffffffffffffffffffffffffffffffffff167f7084f5476618d8e60b11ef0d7d3f06914655adb8793e28ff7f018d4c76d505d5826040516102479190610849565b60405180910390a25050565b61025b610412565b6102656000610584565b565b60008060009054906101000a900473ffffffffffffffffffffffffffffffffffffffff16905090565b6000600160008373ffffffffffffffffffffffffffffffffffffffff1673ffffffffffffffffffffffffffffffffffffffff168152602001908152602001600020549050919050565b6102e1610412565b600073ffffffffffffffffffffffffffffffffffffffff168173ffffffffffffffffffffffffffffffffffffffff161415610351576040517f08c379a0000000000000000000000000000000000000000000000000000000008152600401610348906107c9565b60405180910390fd5b61035a81610584565b50565b610365610412565b600034905080600160008473ffffffffffffffffffffffffffffffffffffffff1673ffffffffffffffffffffffffffffffffffffffff16815260200190815260200160002060008282546103b99190610880565b925050819055508173ffffffffffffffffffffffffffffffffffffffff167f2da466a7b24304f47e87fa2e1e5a81b9831ce54fec19055ce277ca2f39ba42c4826040516104069190610849565b60405180910390a25050565b61041a610648565b73ffffffffffffffffffffffffffffffffffffffff16610438610267565b73ffffffffffffffffffffffffffffffffffffffff161461048e576040517f08c379a000000000000000000000000000000000000000000000000000000000815260040161048590610829565b60405180910390fd5b565b804710156104d3576040517f08c379a00000000000000000000000000000000000000000000000000000000081526004016104ca90610809565b60405180910390fd5b60008273ffffffffffffffffffffffffffffffffffffffff16826040516104f990610799565b60006040518083038185875af1925050503d8060008114610536576040519150601f19603f3d011682016040523d82523d6000602084013e61053b565b606091505b505090508061057f576040517f08c379a0000000000000000000000000000000000000000000000000000000008152600401610576906107e9565b60405180910390fd5b505050565b60008060009054906101000a900473ffffffffffffffffffffffffffffffffffffffff169050816000806101000a81548173ffffffffffffffffffffffffffffffffffffffff021916908373ffffffffffffffffffffffffffffffffffffffff1602179055508173ffffffffffffffffffffffffffffffffffffffff168173ffffffffffffffffffffffffffffffffffffffff167f8be0079c531659141344cd1fd0a4f28419497f9722a3daafe3b4186f6b6457e060405160405180910390a35050565b600033905090565b60008135905061065f81610a46565b92915050565b60008135905061067481610a5d565b92915050565b60006020828403121561068c57600080fd5b600061069a84828501610650565b91505092915050565b6000602082840312156106b557600080fd5b60006106c384828501610665565b91505092915050565b6106d5816108d6565b82525050565b60006106e860268361086f565b91506106f382610953565b604082019050919050565b600061070b603a8361086f565b9150610716826109a2565b604082019050919050565b600061072e601d8361086f565b9150610739826109f1565b602082019050919050565b600061075160208361086f565b915061075c82610a1a565b602082019050919050565b6000610774600083610864565b915061077f82610a43565b600082019050919050565b6107938161091a565b82525050565b60006107a482610767565b9150819050919050565b60006020820190506107c360008301846106cc565b92915050565b600060208201905081810360008301526107e2816106db565b9050919050565b60006020820190508181036000830152610802816106fe565b9050919050565b6000602082019050818103600083015261082281610721565b9050919050565b6000602082019050818103600083015261084281610744565b9050919050565b600060208201905061085e600083018461078a565b92915050565b600081905092915050565b600082825260208201905092915050565b600061088b8261091a565b91506108968361091a565b9250827fffffffffffffffffffffffffffffffffffffffffffffffffffffffffffffffff038211156108cb576108ca610924565b5b828201905092915050565b60006108e1826108fa565b9050919050565b60006108f3826108fa565b9050919050565b600073ffffffffffffffffffffffffffffffffffffffff82169050919050565b6000819050919050565b7f4e487b7100000000000000000000000000000000000000000000000000000000600052601160045260246000fd5b7f4f776e61626c653a206e6577206f776e657220697320746865207a65726f206160008201527f6464726573730000000000000000000000000000000000000000000000000000602082015250565b7f416464726573733a20756e61626c6520746f2073656e642076616c75652c207260008201527f6563697069656e74206d61792068617665207265766572746564000000000000602082015250565b7f416464726573733a20696e73756666696369656e742062616c616e6365000000600082015250565b7f4f776e61626c653a2063616c6c6572206973206e6f7420746865206f776e6572600082015250565b50565b610a4f816108d6565b8114610a5a57600080fd5b50565b610a66816108e8565b8114610a7157600080fd5b5056fea2646970667358221220f5d7a234895c04d4200ce86e5834c8b0302a224c119c606c7bf67b406336fa7164736f6c6343000804003368747470733a2f2f626166796265696871677a3766717275697a77687372786c78776376736d616e6b6437777468356c723564327a667a6d336d6d63736a37777676752e697066732e6e667473746f726167652e6c696e6b2f6d657461646174612f",
  "linkReferences": {},
  "deployedLinkReferences": {}
}