{
  "_format": "hh-sol-artifact-1",
  "contractName": "City",
  "sourceName": "contracts/City.sol",
  "abi": [
    {
      "inputs": [],
      "stateMutability": "nonpayable",
      "type": "constructor"
    },
    {
      "anonymous": false,
      "inputs": [
        {
          "indexed": true,
          "internalType": "address",
          "name": "owner",
          "type": "address"
        },
        {
          "indexed": true,
          "internalType": "address",
          "name": "approved",
          "type": "address"
        },
        {
          "indexed": true,
          "internalType": "uint256",
          "name": "tokenId",
          "type": "uint256"
        }
      ],
      "name": "Approval",
      "type": "event"
    },
    {
      "anonymous": false,
      "inputs": [
        {
          "indexed": true,
          "internalType": "address",
          "name": "owner",
          "type": "address"
        },
        {
          "indexed": true,
          "internalType": "address",
          "name": "operator",
          "type": "address"
        },
        {
          "indexed": false,
          "internalType": "bool",
          "name": "approved",
          "type": "bool"
        }
      ],
      "name": "ApprovalForAll",
      "type": "event"
    },
    {
      "anonymous": false,
      "inputs": [
        {
          "indexed": true,
          "internalType": "address",
          "name": "previousOwner",
          "type": "address"
        },
        {
          "indexed": true,
          "internalType": "address",
          "name": "newOwner",
          "type": "address"
        }
      ],
      "name": "OwnershipTransferred",
      "type": "event"
    },
    {
      "anonymous": false,
      "inputs": [
        {
          "indexed": true,
          "internalType": "address",
          "name": "from",
          "type": "address"
        },
        {
          "indexed": true,
          "internalType": "address",
          "name": "to",
          "type": "address"
        },
        {
          "indexed": true,
          "internalType": "uint256",
          "name": "tokenId",
          "type": "uint256"
        }
      ],
      "name": "Transfer",
      "type": "event"
    },
    {
      "inputs": [],
      "name": "TOTAL_SUPPLY",
      "outputs": [
        {
          "internalType": "uint256",
          "name": "",
          "type": "uint256"
        }
      ],
      "stateMutability": "view",
      "type": "function"
    },
    {
      "inputs": [
        {
          "internalType": "address",
          "name": "to",
          "type": "address"
        },
        {
          "internalType": "uint256",
          "name": "tokenId",
          "type": "uint256"
        }
      ],
      "name": "approve",
      "outputs": [],
      "stateMutability": "nonpayable",
      "type": "function"
    },
    {
      "inputs": [
        {
          "internalType": "address",
          "name": "owner",
          "type": "address"
        }
      ],
      "name": "balanceOf",
      "outputs": [
        {
          "internalType": "uint256",
          "name": "",
          "type": "uint256"
        }
      ],
      "stateMutability": "view",
      "type": "function"
    },
    {
      "inputs": [],
      "name": "baseTokenURI",
      "outputs": [
        {
          "internalType": "string",
          "name": "",
          "type": "string"
        }
      ],
      "stateMutability": "view",
      "type": "function"
    },
    {
      "inputs": [
        {
          "internalType": "uint256",
          "name": "tokenId",
          "type": "uint256"
        }
      ],
      "name": "getApproved",
      "outputs": [
        {
          "internalType": "address",
          "name": "",
          "type": "address"
        }
      ],
      "stateMutability": "view",
      "type": "function"
    },
    {
      "inputs": [
        {
          "internalType": "uint256",
          "name": "tokenId",
          "type": "uint256"
        }
      ],
      "name": "getTokenValue",
      "outputs": [
        {
          "internalType": "uint256",
          "name": "",
          "type": "uint256"
        }
      ],
      "stateMutability": "view",
      "type": "function"
    },
    {
      "inputs": [
        {
          "internalType": "address",
          "name": "owner",
          "type": "address"
        },
        {
          "internalType": "address",
          "name": "operator",
          "type": "address"
        }
      ],
      "name": "isApprovedForAll",
      "outputs": [
        {
          "internalType": "bool",
          "name": "",
          "type": "bool"
        }
      ],
      "stateMutability": "view",
      "type": "function"
    },
    {
      "inputs": [
        {
          "internalType": "address",
          "name": "recipient",
          "type": "address"
        },
        {
          "internalType": "uint256",
          "name": "value",
          "type": "uint256"
        },
        {
          "internalType": "uint256",
          "name": "tokenId",
          "type": "uint256"
        }
      ],
      "name": "mint",
      "outputs": [
        {
          "internalType": "uint256",
          "name": "",
          "type": "uint256"
        }
      ],
      "stateMutability": "payable",
      "type": "function"
    },
    {
      "inputs": [],
      "name": "name",
      "outputs": [
        {
          "internalType": "string",
          "name": "",
          "type": "string"
        }
      ],
      "stateMutability": "view",
      "type": "function"
    },
    {
      "inputs": [],
      "name": "owner",
      "outputs": [
        {
          "internalType": "address",
          "name": "",
          "type": "address"
        }
      ],
      "stateMutability": "view",
      "type": "function"
    },
    {
      "inputs": [
        {
          "internalType": "uint256",
          "name": "tokenId",
          "type": "uint256"
        }
      ],
      "name": "ownerOf",
      "outputs": [
        {
          "internalType": "address",
          "name": "",
          "type": "address"
        }
      ],
      "stateMutability": "view",
      "type": "function"
    },
    {
      "inputs": [
        {
          "internalType": "address",
          "name": "dest",
          "type": "address"
        }
      ],
      "name": "payments",
      "outputs": [
        {
          "internalType": "uint256",
          "name": "",
          "type": "uint256"
        }
      ],
      "stateMutability": "view",
      "type": "function"
    },
    {
      "inputs": [],
      "name": "renounceOwnership",
      "outputs": [],
      "stateMutability": "nonpayable",
      "type": "function"
    },
    {
      "inputs": [
        {
          "internalType": "address",
          "name": "from",
          "type": "address"
        },
        {
          "internalType": "address",
          "name": "to",
          "type": "address"
        },
        {
          "internalType": "uint256",
          "name": "tokenId",
          "type": "uint256"
        }
      ],
      "name": "safeTransferFrom",
      "outputs": [],
      "stateMutability": "nonpayable",
      "type": "function"
    },
    {
      "inputs": [
        {
          "internalType": "address",
          "name": "from",
          "type": "address"
        },
        {
          "internalType": "address",
          "name": "to",
          "type": "address"
        },
        {
          "internalType": "uint256",
          "name": "tokenId",
          "type": "uint256"
        },
        {
          "internalType": "bytes",
          "name": "data",
          "type": "bytes"
        }
      ],
      "name": "safeTransferFrom",
      "outputs": [],
      "stateMutability": "nonpayable",
      "type": "function"
    },
    {
      "inputs": [
        {
          "internalType": "address",
          "name": "operator",
          "type": "address"
        },
        {
          "internalType": "bool",
          "name": "approved",
          "type": "bool"
        }
      ],
      "name": "setApprovalForAll",
      "outputs": [],
      "stateMutability": "nonpayable",
      "type": "function"
    },
    {
      "inputs": [
        {
          "internalType": "string",
          "name": "_baseTokenURI",
          "type": "string"
        }
      ],
      "name": "setBaseTokenURI",
      "outputs": [],
      "stateMutability": "nonpayable",
      "type": "function"
    },
    {
      "inputs": [
        {
          "internalType": "bytes4",
          "name": "interfaceId",
          "type": "bytes4"
        }
      ],
      "name": "supportsInterface",
      "outputs": [
        {
          "internalType": "bool",
          "name": "",
          "type": "bool"
        }
      ],
      "stateMutability": "view",
      "type": "function"
    },
    {
      "inputs": [],
      "name": "symbol",
      "outputs": [
        {
          "internalType": "string",
          "name": "",
          "type": "string"
        }
      ],
      "stateMutability": "view",
      "type": "function"
    },
    {
      "inputs": [
        {
          "internalType": "uint256",
          "name": "tokenId",
          "type": "uint256"
        }
      ],
      "name": "tokenURI",
      "outputs": [
        {
          "internalType": "string",
          "name": "",
          "type": "string"
        }
      ],
      "stateMutability": "view",
      "type": "function"
    },
    {
      "inputs": [
        {
          "internalType": "uint256",
          "name": "",
          "type": "uint256"
        }
      ],
      "name": "tokenValue",
      "outputs": [
        {
          "internalType": "uint256",
          "name": "",
          "type": "uint256"
        }
      ],
      "stateMutability": "view",
      "type": "function"
    },
    {
      "inputs": [
        {
          "internalType": "address",
          "name": "from",
          "type": "address"
        },
        {
          "internalType": "address",
          "name": "to",
          "type": "address"
        },
        {
          "internalType": "uint256",
          "name": "tokenId",
          "type": "uint256"
        }
      ],
      "name": "transferFrom",
      "outputs": [],
      "stateMutability": "nonpayable",
      "type": "function"
    },
    {
      "inputs": [
        {
          "internalType": "address",
          "name": "newOwner",
          "type": "address"
        }
      ],
      "name": "transferOwnership",
      "outputs": [],
      "stateMutability": "nonpayable",
      "type": "function"
    },
    {
      "inputs": [
        {
          "internalType": "address payable",
          "name": "payee",
          "type": "address"
        }
      ],
      "name": "withdrawPayments",
      "outputs": [],
      "stateMutability": "nonpayable",
      "type": "function"
    }
  ],
  "bytecode": "0x60a0604052426009553480156200001557600080fd5b506040518060400160405280600481526020017f43697479000000000000000000000000000000000000000000000000000000008152506040518060400160405280600381526020017f435459000000000000000000000000000000000000000000000000000000000081525081600090805190602001906200009a9291906200023e565b508060019080519060200190620000b39291906200023e565b505050604051620000c490620002cf565b604051809103906000f080158015620000e1573d6000803e3d6000fd5b5073ffffffffffffffffffffffffffffffffffffffff1660808173ffffffffffffffffffffffffffffffffffffffff1660601b81525050620001386200012c6200017060201b60201c565b6200017860201b60201c565b6040518060a0016040528060628152602001620044216062913960079080519060200190620001699291906200023e565b5062000361565b600033905090565b6000600660009054906101000a900473ffffffffffffffffffffffffffffffffffffffff16905081600660006101000a81548173ffffffffffffffffffffffffffffffffffffffff021916908373ffffffffffffffffffffffffffffffffffffffff1602179055508173ffffffffffffffffffffffffffffffffffffffff168173ffffffffffffffffffffffffffffffffffffffff167f8be0079c531659141344cd1fd0a4f28419497f9722a3daafe3b4186f6b6457e060405160405180910390a35050565b8280546200024c90620002fc565b90600052602060002090601f016020900481019282620002705760008555620002bc565b82601f106200028b57805160ff1916838001178555620002bc565b82800160010185558215620002bc579182015b82811115620002bb5782518255916020019190600101906200029e565b5b509050620002cb9190620002dd565b5090565b610bb7806200386a83390190565b5b80821115620002f8576000816000905550600101620002de565b5090565b600060028204905060018216806200031557607f821691505b602082108114156200032c576200032b62000332565b5b50919050565b7f4e487b7100000000000000000000000000000000000000000000000000000000600052602260045260246000fd5b60805160601c6134e36200038760003960008181610ef101526116cc01526134e36000f3fe60806040526004361061014b5760003560e01c80638da5cb5b116100b6578063cb9144911161006f578063cb91449114610493578063d10424c7146104d0578063d547cfb71461050d578063e2982c2114610538578063e985e9c514610575578063f2fde38b146105b25761014b565b80638da5cb5b14610383578063902d55a5146103ae57806395d89b41146103d9578063a22cb46514610404578063b88d4fde1461042d578063c87b56dd146104565761014b565b806330176e131161010857806330176e131461027757806331b3eb94146102a057806342842e0e146102c95780636352211e146102f257806370a082311461032f578063715018a61461036c5761014b565b806301ffc9a71461015057806306fdde031461018d578063081812fc146101b8578063095ea7b3146101f5578063156e29f61461021e57806323b872dd1461024e575b600080fd5b34801561015c57600080fd5b506101776004803603810190610172919061246d565b6105db565b604051610184919061294d565b60405180910390f35b34801561019957600080fd5b506101a26106bd565b6040516101af9190612968565b60405180910390f35b3480156101c457600080fd5b506101df60048036038101906101da9190612500565b61074f565b6040516101ec91906128cb565b60405180910390f35b34801561020157600080fd5b5061021c600480360381019061021791906123e2565b610795565b005b6102386004803603810190610233919061241e565b6108ad565b6040516102459190612bca565b60405180910390f35b34801561025a57600080fd5b50610275600480360381019061027091906122dc565b610a54565b005b34801561028357600080fd5b5061029e600480360381019061029991906124bf565b610ab4565b005b3480156102ac57600080fd5b506102c760048036038101906102c29190612277565b610ad6565b005b3480156102d557600080fd5b506102f060048036038101906102eb91906122dc565b610aea565b005b3480156102fe57600080fd5b5061031960048036038101906103149190612500565b610b0a565b60405161032691906128cb565b60405180910390f35b34801561033b57600080fd5b506103566004803603810190610351919061224e565b610bbc565b6040516103639190612bca565b60405180910390f35b34801561037857600080fd5b50610381610c74565b005b34801561038f57600080fd5b50610398610c88565b6040516103a591906128cb565b60405180910390f35b3480156103ba57600080fd5b506103c3610cb2565b6040516103d09190612bca565b60405180910390f35b3480156103e557600080fd5b506103ee610cb8565b6040516103fb9190612968565b60405180910390f35b34801561041057600080fd5b5061042b600480360381019061042691906123a6565b610d4a565b005b34801561043957600080fd5b50610454600480360381019061044f919061232b565b610d60565b005b34801561046257600080fd5b5061047d60048036038101906104789190612500565b610dc2565b60405161048a9190612968565b60405180910390f35b34801561049f57600080fd5b506104ba60048036038101906104b59190612500565b610e2a565b6040516104c79190612bca565b60405180910390f35b3480156104dc57600080fd5b506104f760048036038101906104f29190612500565b610e42565b6040516105049190612bca565b60405180910390f35b34801561051957600080fd5b50610522610e5f565b60405161052f9190612968565b60405180910390f35b34801561054457600080fd5b5061055f600480360381019061055a919061224e565b610eed565b60405161056c9190612bca565b60405180910390f35b34801561058157600080fd5b5061059c600480360381019061059791906122a0565b610f9f565b6040516105a9919061294d565b60405180910390f35b3480156105be57600080fd5b506105d960048036038101906105d4919061224e565b611033565b005b60007f80ac58cd000000000000000000000000000000000000000000000000000000007bffffffffffffffffffffffffffffffffffffffffffffffffffffffff1916827bffffffffffffffffffffffffffffffffffffffffffffffffffffffff191614806106a657507f5b5e139f000000000000000000000000000000000000000000000000000000007bffffffffffffffffffffffffffffffffffffffffffffffffffffffff1916827bffffffffffffffffffffffffffffffffffffffffffffffffffffffff1916145b806106b657506106b5826110b7565b5b9050919050565b6060600080546106cc90612e32565b80601f01602080910402602001604051908101604052809291908181526020018280546106f890612e32565b80156107455780601f1061071a57610100808354040283529160200191610745565b820191906000526020600020905b81548152906001019060200180831161072857829003601f168201915b5050505050905090565b600061075a82611121565b6004600083815260200190815260200160002060009054906101000a900473ffffffffffffffffffffffffffffffffffffffff169050919050565b60006107a082610b0a565b90508073ffffffffffffffffffffffffffffffffffffffff168373ffffffffffffffffffffffffffffffffffffffff161415610811576040517f08c379a000000000000000000000000000000000000000000000000000000000815260040161080890612b6a565b60405180910390fd5b8073ffffffffffffffffffffffffffffffffffffffff1661083061116c565b73ffffffffffffffffffffffffffffffffffffffff16148061085f575061085e8161085961116c565b610f9f565b5b61089e576040517f08c379a000000000000000000000000000000000000000000000000000000000815260040161089590612aca565b60405180910390fd5b6108a88383611174565b505050565b600061271082106108f3576040517f08c379a00000000000000000000000000000000000000000000000000000000081526004016108ea90612a6a565b60405180910390fd5b60008211610936576040517f08c379a000000000000000000000000000000000000000000000000000000000815260040161092d90612b0a565b60405180910390fd5b61093f8261122d565b1561097f576040517f08c379a000000000000000000000000000000000000000000000000000000000815260040161097690612a4a565b60405180910390fd5b8234146109c1576040517f08c379a00000000000000000000000000000000000000000000000000000000081526004016109b890612a8a565b60405180910390fd5b6000600954426109d19190612d36565b90506109dc81611299565b601e811015610a20576040517f08c379a0000000000000000000000000000000000000000000000000000000008152600401610a1790612baa565b60405180910390fd5b610a2a8584611332565b83600860008581526020019081526020016000208190555042600981905550829150509392505050565b610a65610a5f61116c565b82611350565b610aa4576040517f08c379a0000000000000000000000000000000000000000000000000000000008152600401610a9b90612b8a565b60405180910390fd5b610aaf8383836113e5565b505050565b610abc61164c565b8060079080519060200190610ad2929190612048565b5050565b610ade61164c565b610ae7816116ca565b50565b610b0583838360405180602001604052806000815250610d60565b505050565b6000806002600084815260200190815260200160002060009054906101000a900473ffffffffffffffffffffffffffffffffffffffff169050600073ffffffffffffffffffffffffffffffffffffffff168173ffffffffffffffffffffffffffffffffffffffff161415610bb3576040517f08c379a0000000000000000000000000000000000000000000000000000000008152600401610baa90612b4a565b60405180910390fd5b80915050919050565b60008073ffffffffffffffffffffffffffffffffffffffff168273ffffffffffffffffffffffffffffffffffffffff161415610c2d576040517f08c379a0000000000000000000000000000000000000000000000000000000008152600401610c2490612aaa565b60405180910390fd5b600360008373ffffffffffffffffffffffffffffffffffffffff1673ffffffffffffffffffffffffffffffffffffffff168152602001908152602001600020549050919050565b610c7c61164c565b610c866000611758565b565b6000600660009054906101000a900473ffffffffffffffffffffffffffffffffffffffff16905090565b61271081565b606060018054610cc790612e32565b80601f0160208091040260200160405190810160405280929190818152602001828054610cf390612e32565b8015610d405780601f10610d1557610100808354040283529160200191610d40565b820191906000526020600020905b815481529060010190602001808311610d2357829003601f168201915b5050505050905090565b610d5c610d5561116c565b838361181e565b5050565b610d71610d6b61116c565b83611350565b610db0576040517f08c379a0000000000000000000000000000000000000000000000000000000008152600401610da790612b8a565b60405180910390fd5b610dbc8484848461198b565b50505050565b6060610dcd82611121565b6000610dd76119e7565b90506000815111610df75760405180602001604052806000815250610e22565b80610e0184611a79565b604051602001610e129291906128a7565b6040516020818303038152906040525b915050919050565b60086020528060005260406000206000915090505481565b600060086000838152602001908152602001600020549050919050565b60078054610e6c90612e32565b80601f0160208091040260200160405190810160405280929190818152602001828054610e9890612e32565b8015610ee55780601f10610eba57610100808354040283529160200191610ee5565b820191906000526020600020905b815481529060010190602001808311610ec857829003601f168201915b505050505081565b60007f000000000000000000000000000000000000000000000000000000000000000073ffffffffffffffffffffffffffffffffffffffff1663e3a9db1a836040518263ffffffff1660e01b8152600401610f4891906128cb565b60206040518083038186803b158015610f6057600080fd5b505afa158015610f74573d6000803e3d6000fd5b505050506040513d601f19601f82011682018060405250810190610f989190612529565b9050919050565b6000600560008473ffffffffffffffffffffffffffffffffffffffff1673ffffffffffffffffffffffffffffffffffffffff16815260200190815260200160002060008373ffffffffffffffffffffffffffffffffffffffff1673ffffffffffffffffffffffffffffffffffffffff16815260200190815260200160002060009054906101000a900460ff16905092915050565b61103b61164c565b600073ffffffffffffffffffffffffffffffffffffffff168173ffffffffffffffffffffffffffffffffffffffff1614156110ab576040517f08c379a00000000000000000000000000000000000000000000000000000000081526004016110a2906129aa565b60405180910390fd5b6110b481611758565b50565b60007f01ffc9a7000000000000000000000000000000000000000000000000000000007bffffffffffffffffffffffffffffffffffffffffffffffffffffffff1916827bffffffffffffffffffffffffffffffffffffffffffffffffffffffff1916149050919050565b61112a8161122d565b611169576040517f08c379a000000000000000000000000000000000000000000000000000000000815260040161116090612b4a565b60405180910390fd5b50565b600033905090565b816004600083815260200190815260200160002060006101000a81548173ffffffffffffffffffffffffffffffffffffffff021916908373ffffffffffffffffffffffffffffffffffffffff160217905550808273ffffffffffffffffffffffffffffffffffffffff166111e783610b0a565b73ffffffffffffffffffffffffffffffffffffffff167f8c5be1e5ebec7d5bd14f71427d1e84f3dd0314c0f7b2291e5b200ac8c7c3b92560405160405180910390a45050565b60008073ffffffffffffffffffffffffffffffffffffffff166002600084815260200190815260200160002060009054906101000a900473ffffffffffffffffffffffffffffffffffffffff1673ffffffffffffffffffffffffffffffffffffffff1614159050919050565b61132f816040516024016112ad9190612bca565b6040516020818303038152906040527ff82c50f1000000000000000000000000000000000000000000000000000000007bffffffffffffffffffffffffffffffffffffffffffffffffffffffff19166020820180517bffffffffffffffffffffffffffffffffffffffffffffffffffffffff8381831617835250505050611c26565b50565b61134c828260405180602001604052806000815250611c4f565b5050565b60008061135c83610b0a565b90508073ffffffffffffffffffffffffffffffffffffffff168473ffffffffffffffffffffffffffffffffffffffff16148061139e575061139d8185610f9f565b5b806113dc57508373ffffffffffffffffffffffffffffffffffffffff166113c48461074f565b73ffffffffffffffffffffffffffffffffffffffff16145b91505092915050565b8273ffffffffffffffffffffffffffffffffffffffff1661140582610b0a565b73ffffffffffffffffffffffffffffffffffffffff161461145b576040517f08c379a0000000000000000000000000000000000000000000000000000000008152600401611452906129ca565b60405180910390fd5b600073ffffffffffffffffffffffffffffffffffffffff168273ffffffffffffffffffffffffffffffffffffffff1614156114cb576040517f08c379a00000000000000000000000000000000000000000000000000000000081526004016114c290612a0a565b60405180910390fd5b6114d6838383611caa565b6114e1600082611174565b6001600360008573ffffffffffffffffffffffffffffffffffffffff1673ffffffffffffffffffffffffffffffffffffffff16815260200190815260200160002060008282546115319190612d36565b925050819055506001600360008473ffffffffffffffffffffffffffffffffffffffff1673ffffffffffffffffffffffffffffffffffffffff16815260200190815260200160002060008282546115889190612caf565b92505081905550816002600083815260200190815260200160002060006101000a81548173ffffffffffffffffffffffffffffffffffffffff021916908373ffffffffffffffffffffffffffffffffffffffff160217905550808273ffffffffffffffffffffffffffffffffffffffff168473ffffffffffffffffffffffffffffffffffffffff167fddf252ad1be2c89b69c2b068fc378daa952ba7f163c4a11628f55a4df523b3ef60405160405180910390a4611647838383611caf565b505050565b61165461116c565b73ffffffffffffffffffffffffffffffffffffffff16611672610c88565b73ffffffffffffffffffffffffffffffffffffffff16146116c8576040517f08c379a00000000000000000000000000000000000000000000000000000000081526004016116bf90612b2a565b60405180910390fd5b565b7f000000000000000000000000000000000000000000000000000000000000000073ffffffffffffffffffffffffffffffffffffffff166351cff8d9826040518263ffffffff1660e01b815260040161172391906128e6565b600060405180830381600087803b15801561173d57600080fd5b505af1158015611751573d6000803e3d6000fd5b5050505050565b6000600660009054906101000a900473ffffffffffffffffffffffffffffffffffffffff16905081600660006101000a81548173ffffffffffffffffffffffffffffffffffffffff021916908373ffffffffffffffffffffffffffffffffffffffff1602179055508173ffffffffffffffffffffffffffffffffffffffff168173ffffffffffffffffffffffffffffffffffffffff167f8be0079c531659141344cd1fd0a4f28419497f9722a3daafe3b4186f6b6457e060405160405180910390a35050565b8173ffffffffffffffffffffffffffffffffffffffff168373ffffffffffffffffffffffffffffffffffffffff16141561188d576040517f08c379a000000000000000000000000000000000000000000000000000000000815260040161188490612a2a565b60405180910390fd5b80600560008573ffffffffffffffffffffffffffffffffffffffff1673ffffffffffffffffffffffffffffffffffffffff16815260200190815260200160002060008473ffffffffffffffffffffffffffffffffffffffff1673ffffffffffffffffffffffffffffffffffffffff16815260200190815260200160002060006101000a81548160ff0219169083151502179055508173ffffffffffffffffffffffffffffffffffffffff168373ffffffffffffffffffffffffffffffffffffffff167f17307eab39ab6107e8899845ad3d59bd9653f200f220920489ca2b5937696c318360405161197e919061294d565b60405180910390a3505050565b6119968484846113e5565b6119a284848484611cb4565b6119e1576040517f08c379a00000000000000000000000000000000000000000000000000000000081526004016119d89061298a565b60405180910390fd5b50505050565b6060600780546119f690612e32565b80601f0160208091040260200160405190810160405280929190818152602001828054611a2290612e32565b8015611a6f5780601f10611a4457610100808354040283529160200191611a6f565b820191906000526020600020905b815481529060010190602001808311611a5257829003601f168201915b5050505050905090565b60606000821415611ac1576040518060400160405280600181526020017f30000000000000000000000000000000000000000000000000000000000000008152509050611c21565b600082905060005b60008214611af3578080611adc90612e95565b915050600a82611aec9190612d05565b9150611ac9565b60008167ffffffffffffffff811115611b35577f4e487b7100000000000000000000000000000000000000000000000000000000600052604160045260246000fd5b6040519080825280601f01601f191660200182016040528015611b675781602001600182028036833780820191505090505b5090505b60008514611c1a57600182611b809190612d36565b9150600a85611b8f9190612ede565b6030611b9b9190612caf565b60f81b818381518110611bd7577f4e487b7100000000000000000000000000000000000000000000000000000000600052603260045260246000fd5b60200101907effffffffffffffffffffffffffffffffffffffffffffffffffffffffffffff1916908160001a905350600a85611c139190612d05565b9450611b6b565b8093505050505b919050565b60008151905060006a636f6e736f6c652e6c6f679050602083016000808483855afa5050505050565b611c598383611e4b565b611c666000848484611cb4565b611ca5576040517f08c379a0000000000000000000000000000000000000000000000000000000008152600401611c9c9061298a565b60405180910390fd5b505050565b505050565b505050565b6000611cd58473ffffffffffffffffffffffffffffffffffffffff16612025565b15611e3e578373ffffffffffffffffffffffffffffffffffffffff1663150b7a02611cfe61116c565b8786866040518563ffffffff1660e01b8152600401611d209493929190612901565b602060405180830381600087803b158015611d3a57600080fd5b505af1925050508015611d6b57506040513d601f19601f82011682018060405250810190611d689190612496565b60015b611dee573d8060008114611d9b576040519150601f19603f3d011682016040523d82523d6000602084013e611da0565b606091505b50600081511415611de6576040517f08c379a0000000000000000000000000000000000000000000000000000000008152600401611ddd9061298a565b60405180910390fd5b805181602001fd5b63150b7a0260e01b7bffffffffffffffffffffffffffffffffffffffffffffffffffffffff1916817bffffffffffffffffffffffffffffffffffffffffffffffffffffffff191614915050611e43565b600190505b949350505050565b600073ffffffffffffffffffffffffffffffffffffffff168273ffffffffffffffffffffffffffffffffffffffff161415611ebb576040517f08c379a0000000000000000000000000000000000000000000000000000000008152600401611eb290612aea565b60405180910390fd5b611ec48161122d565b15611f04576040517f08c379a0000000000000000000000000000000000000000000000000000000008152600401611efb906129ea565b60405180910390fd5b611f1060008383611caa565b6001600360008473ffffffffffffffffffffffffffffffffffffffff1673ffffffffffffffffffffffffffffffffffffffff1681526020019081526020016000206000828254611f609190612caf565b92505081905550816002600083815260200190815260200160002060006101000a81548173ffffffffffffffffffffffffffffffffffffffff021916908373ffffffffffffffffffffffffffffffffffffffff160217905550808273ffffffffffffffffffffffffffffffffffffffff16600073ffffffffffffffffffffffffffffffffffffffff167fddf252ad1be2c89b69c2b068fc378daa952ba7f163c4a11628f55a4df523b3ef60405160405180910390a461202160008383611caf565b5050565b6000808273ffffffffffffffffffffffffffffffffffffffff163b119050919050565b82805461205490612e32565b90600052602060002090601f01602090048101928261207657600085556120bd565b82601f1061208f57805160ff19168380011785556120bd565b828001600101855582156120bd579182015b828111156120bc5782518255916020019190600101906120a1565b5b5090506120ca91906120ce565b5090565b5b808211156120e75760008160009055506001016120cf565b5090565b60006120fe6120f984612c0a565b612be5565b90508281526020810184848401111561211657600080fd5b612121848285612df0565b509392505050565b600061213c61213784612c3b565b612be5565b90508281526020810184848401111561215457600080fd5b61215f848285612df0565b509392505050565b6000813590506121768161343a565b92915050565b60008135905061218b81613451565b92915050565b6000813590506121a081613468565b92915050565b6000813590506121b58161347f565b92915050565b6000815190506121ca8161347f565b92915050565b600082601f8301126121e157600080fd5b81356121f18482602086016120eb565b91505092915050565b600082601f83011261220b57600080fd5b813561221b848260208601612129565b91505092915050565b60008135905061223381613496565b92915050565b60008151905061224881613496565b92915050565b60006020828403121561226057600080fd5b600061226e84828501612167565b91505092915050565b60006020828403121561228957600080fd5b60006122978482850161217c565b91505092915050565b600080604083850312156122b357600080fd5b60006122c185828601612167565b92505060206122d285828601612167565b9150509250929050565b6000806000606084860312156122f157600080fd5b60006122ff86828701612167565b935050602061231086828701612167565b925050604061232186828701612224565b9150509250925092565b6000806000806080858703121561234157600080fd5b600061234f87828801612167565b945050602061236087828801612167565b935050604061237187828801612224565b925050606085013567ffffffffffffffff81111561238e57600080fd5b61239a878288016121d0565b91505092959194509250565b600080604083850312156123b957600080fd5b60006123c785828601612167565b92505060206123d885828601612191565b9150509250929050565b600080604083850312156123f557600080fd5b600061240385828601612167565b925050602061241485828601612224565b9150509250929050565b60008060006060848603121561243357600080fd5b600061244186828701612167565b935050602061245286828701612224565b925050604061246386828701612224565b9150509250925092565b60006020828403121561247f57600080fd5b600061248d848285016121a6565b91505092915050565b6000602082840312156124a857600080fd5b60006124b6848285016121bb565b91505092915050565b6000602082840312156124d157600080fd5b600082013567ffffffffffffffff8111156124eb57600080fd5b6124f7848285016121fa565b91505092915050565b60006020828403121561251257600080fd5b600061252084828501612224565b91505092915050565b60006020828403121561253b57600080fd5b600061254984828501612239565b91505092915050565b61255b81612d7c565b82525050565b61256a81612d6a565b82525050565b61257981612d8e565b82525050565b600061258a82612c6c565b6125948185612c82565b93506125a4818560208601612dff565b6125ad81612fcb565b840191505092915050565b60006125c382612c77565b6125cd8185612c93565b93506125dd818560208601612dff565b6125e681612fcb565b840191505092915050565b60006125fc82612c77565b6126068185612ca4565b9350612616818560208601612dff565b80840191505092915050565b600061262f603283612c93565b915061263a82612fdc565b604082019050919050565b6000612652602683612c93565b915061265d8261302b565b604082019050919050565b6000612675602583612c93565b91506126808261307a565b604082019050919050565b6000612698601c83612c93565b91506126a3826130c9565b602082019050919050565b60006126bb602483612c93565b91506126c6826130f2565b604082019050919050565b60006126de601983612c93565b91506126e982613141565b602082019050919050565b6000612701601683612c93565b915061270c8261316a565b602082019050919050565b6000612724601983612c93565b915061272f82613193565b602082019050919050565b6000612747602f83612c93565b9150612752826131bc565b604082019050919050565b600061276a602983612c93565b91506127758261320b565b604082019050919050565b600061278d603e83612c93565b91506127988261325a565b604082019050919050565b60006127b0602083612c93565b91506127bb826132a9565b602082019050919050565b60006127d3601e83612c93565b91506127de826132d2565b602082019050919050565b60006127f6602083612c93565b9150612801826132fb565b602082019050919050565b6000612819601883612c93565b915061282482613324565b602082019050919050565b600061283c602183612c93565b91506128478261334d565b604082019050919050565b600061285f602e83612c93565b915061286a8261339c565b604082019050919050565b6000612882602683612c93565b915061288d826133eb565b604082019050919050565b6128a181612de6565b82525050565b60006128b382856125f1565b91506128bf82846125f1565b91508190509392505050565b60006020820190506128e06000830184612561565b92915050565b60006020820190506128fb6000830184612552565b92915050565b60006080820190506129166000830187612561565b6129236020830186612561565b6129306040830185612898565b8181036060830152612942818461257f565b905095945050505050565b60006020820190506129626000830184612570565b92915050565b6000602082019050818103600083015261298281846125b8565b905092915050565b600060208201905081810360008301526129a381612622565b9050919050565b600060208201905081810360008301526129c381612645565b9050919050565b600060208201905081810360008301526129e381612668565b9050919050565b60006020820190508181036000830152612a038161268b565b9050919050565b60006020820190508181036000830152612a23816126ae565b9050919050565b60006020820190508181036000830152612a43816126d1565b9050919050565b60006020820190508181036000830152612a63816126f4565b9050919050565b60006020820190508181036000830152612a8381612717565b9050919050565b60006020820190508181036000830152612aa38161273a565b9050919050565b60006020820190508181036000830152612ac38161275d565b9050919050565b60006020820190508181036000830152612ae381612780565b9050919050565b60006020820190508181036000830152612b03816127a3565b9050919050565b60006020820190508181036000830152612b23816127c6565b9050919050565b60006020820190508181036000830152612b43816127e9565b9050919050565b60006020820190508181036000830152612b638161280c565b9050919050565b60006020820190508181036000830152612b838161282f565b9050919050565b60006020820190508181036000830152612ba381612852565b9050919050565b60006020820190508181036000830152612bc381612875565b9050919050565b6000602082019050612bdf6000830184612898565b92915050565b6000612bef612c00565b9050612bfb8282612e64565b919050565b6000604051905090565b600067ffffffffffffffff821115612c2557612c24612f9c565b5b612c2e82612fcb565b9050602081019050919050565b600067ffffffffffffffff821115612c5657612c55612f9c565b5b612c5f82612fcb565b9050602081019050919050565b600081519050919050565b600081519050919050565b600082825260208201905092915050565b600082825260208201905092915050565b600081905092915050565b6000612cba82612de6565b9150612cc583612de6565b9250827fffffffffffffffffffffffffffffffffffffffffffffffffffffffffffffffff03821115612cfa57612cf9612f0f565b5b828201905092915050565b6000612d1082612de6565b9150612d1b83612de6565b925082612d2b57612d2a612f3e565b5b828204905092915050565b6000612d4182612de6565b9150612d4c83612de6565b925082821015612d5f57612d5e612f0f565b5b828203905092915050565b6000612d7582612dc6565b9050919050565b6000612d8782612dc6565b9050919050565b60008115159050919050565b60007fffffffff0000000000000000000000000000000000000000000000000000000082169050919050565b600073ffffffffffffffffffffffffffffffffffffffff82169050919050565b6000819050919050565b82818337600083830152505050565b60005b83811015612e1d578082015181840152602081019050612e02565b83811115612e2c576000848401525b50505050565b60006002820490506001821680612e4a57607f821691505b60208210811415612e5e57612e5d612f6d565b5b50919050565b612e6d82612fcb565b810181811067ffffffffffffffff82111715612e8c57612e8b612f9c565b5b80604052505050565b6000612ea082612de6565b91507fffffffffffffffffffffffffffffffffffffffffffffffffffffffffffffffff821415612ed357612ed2612f0f565b5b600182019050919050565b6000612ee982612de6565b9150612ef483612de6565b925082612f0457612f03612f3e565b5b828206905092915050565b7f4e487b7100000000000000000000000000000000000000000000000000000000600052601160045260246000fd5b7f4e487b7100000000000000000000000000000000000000000000000000000000600052601260045260246000fd5b7f4e487b7100000000000000000000000000000000000000000000000000000000600052602260045260246000fd5b7f4e487b7100000000000000000000000000000000000000000000000000000000600052604160045260246000fd5b6000601f19601f8301169050919050565b7f4552433732313a207472616e7366657220746f206e6f6e20455243373231526560008201527f63656976657220696d706c656d656e7465720000000000000000000000000000602082015250565b7f4f776e61626c653a206e6577206f776e657220697320746865207a65726f206160008201527f6464726573730000000000000000000000000000000000000000000000000000602082015250565b7f4552433732313a207472616e736665722066726f6d20696e636f72726563742060008201527f6f776e6572000000000000000000000000000000000000000000000000000000602082015250565b7f4552433732313a20746f6b656e20616c7265616479206d696e74656400000000600082015250565b7f4552433732313a207472616e7366657220746f20746865207a65726f2061646460008201527f7265737300000000000000000000000000000000000000000000000000000000602082015250565b7f4552433732313a20617070726f766520746f2063616c6c657200000000000000600082015250565b7f546f6b656e496420616c72656164792065786973747300000000000000000000600082015250565b7f4f6e6c792031306b20746f6b656e7320617661696c61626c6500000000000000600082015250565b7f5472616e73616374696f6e2076616c756520646964206e6f7420657175616c2060008201527f7468652076616c756520676976656e0000000000000000000000000000000000602082015250565b7f4552433732313a2061646472657373207a65726f206973206e6f74206120766160008201527f6c6964206f776e65720000000000000000000000000000000000000000000000602082015250565b7f4552433732313a20617070726f76652063616c6c6572206973206e6f7420746f60008201527f6b656e206f776e6572206e6f7220617070726f76656420666f7220616c6c0000602082015250565b7f4552433732313a206d696e7420746f20746865207a65726f2061646472657373600082015250565b7f546f6b656e4964206d7573742062652067726561746572207468616e20300000600082015250565b7f4f776e61626c653a2063616c6c6572206973206e6f7420746865206f776e6572600082015250565b7f4552433732313a20696e76616c696420746f6b656e2049440000000000000000600082015250565b7f4552433732313a20617070726f76616c20746f2063757272656e74206f776e6560008201527f7200000000000000000000000000000000000000000000000000000000000000602082015250565b7f4552433732313a2063616c6c6572206973206e6f7420746f6b656e206f776e6560008201527f72206e6f7220617070726f766564000000000000000000000000000000000000602082015250565b7f4e6565642061746c6561737420323420686f757220676170206265747765656e60008201527f206d696e74730000000000000000000000000000000000000000000000000000602082015250565b61344381612d6a565b811461344e57600080fd5b50565b61345a81612d7c565b811461346557600080fd5b50565b61347181612d8e565b811461347c57600080fd5b50565b61348881612d9a565b811461349357600080fd5b50565b61349f81612de6565b81146134aa57600080fd5b5056fea2646970667358221220e34895013aa2e8a10525fa7d2b2ad170e7781f4fbc6b86f367163c4dee6059f264736f6c63430008040033608060405234801561001057600080fd5b5061002d61002261003260201b60201c565b61003a60201b60201c565b6100fe565b600033905090565b60008060009054906101000a900473ffffffffffffffffffffffffffffffffffffffff169050816000806101000a81548173ffffffffffffffffffffffffffffffffffffffff021916908373ffffffffffffffffffffffffffffffffffffffff1602179055508173ffffffffffffffffffffffffffffffffffffffff168173ffffffffffffffffffffffffffffffffffffffff167f8be0079c531659141344cd1fd0a4f28419497f9722a3daafe3b4186f6b6457e060405160405180910390a35050565b610aaa8061010d6000396000f3fe6080604052600436106100555760003560e01c806351cff8d91461005a578063715018a6146100835780638da5cb5b1461009a578063e3a9db1a146100c5578063f2fde38b14610102578063f340fa011461012b575b600080fd5b34801561006657600080fd5b50610081600480360381019061007c91906106a3565b610147565b005b34801561008f57600080fd5b50610098610253565b005b3480156100a657600080fd5b506100af610267565b6040516100bc91906107ae565b60405180910390f35b3480156100d157600080fd5b506100ec60048036038101906100e7919061067a565b610290565b6040516100f99190610849565b60405180910390f35b34801561010e57600080fd5b506101296004803603810190610124919061067a565b6102d9565b005b6101456004803603810190610140919061067a565b61035d565b005b61014f610412565b6000600160008373ffffffffffffffffffffffffffffffffffffffff1673ffffffffffffffffffffffffffffffffffffffff1681526020019081526020016000205490506000600160008473ffffffffffffffffffffffffffffffffffffffff1673ffffffffffffffffffffffffffffffffffffffff16815260200190815260200160002081905550610201818373ffffffffffffffffffffffffffffffffffffffff1661049090919063ffffffff16565b8173ffffffffffffffffffffffffffffffffffffffff167f7084f5476618d8e60b11ef0d7d3f06914655adb8793e28ff7f018d4c76d505d5826040516102479190610849565b60405180910390a25050565b61025b610412565b6102656000610584565b565b60008060009054906101000a900473ffffffffffffffffffffffffffffffffffffffff16905090565b6000600160008373ffffffffffffffffffffffffffffffffffffffff1673ffffffffffffffffffffffffffffffffffffffff168152602001908152602001600020549050919050565b6102e1610412565b600073ffffffffffffffffffffffffffffffffffffffff168173ffffffffffffffffffffffffffffffffffffffff161415610351576040517f08c379a0000000000000000000000000000000000000000000000000000000008152600401610348906107c9565b60405180910390fd5b61035a81610584565b50565b610365610412565b600034905080600160008473ffffffffffffffffffffffffffffffffffffffff1673ffffffffffffffffffffffffffffffffffffffff16815260200190815260200160002060008282546103b99190610880565b925050819055508173ffffffffffffffffffffffffffffffffffffffff167f2da466a7b24304f47e87fa2e1e5a81b9831ce54fec19055ce277ca2f39ba42c4826040516104069190610849565b60405180910390a25050565b61041a610648565b73ffffffffffffffffffffffffffffffffffffffff16610438610267565b73ffffffffffffffffffffffffffffffffffffffff161461048e576040517f08c379a000000000000000000000000000000000000000000000000000000000815260040161048590610829565b60405180910390fd5b565b804710156104d3576040517f08c379a00000000000000000000000000000000000000000000000000000000081526004016104ca90610809565b60405180910390fd5b60008273ffffffffffffffffffffffffffffffffffffffff16826040516104f990610799565b60006040518083038185875af1925050503d8060008114610536576040519150601f19603f3d011682016040523d82523d6000602084013e61053b565b606091505b505090508061057f576040517f08c379a0000000000000000000000000000000000000000000000000000000008152600401610576906107e9565b60405180910390fd5b505050565b60008060009054906101000a900473ffffffffffffffffffffffffffffffffffffffff169050816000806101000a81548173ffffffffffffffffffffffffffffffffffffffff021916908373ffffffffffffffffffffffffffffffffffffffff1602179055508173ffffffffffffffffffffffffffffffffffffffff168173ffffffffffffffffffffffffffffffffffffffff167f8be0079c531659141344cd1fd0a4f28419497f9722a3daafe3b4186f6b6457e060405160405180910390a35050565b600033905090565b60008135905061065f81610a46565b92915050565b60008135905061067481610a5d565b92915050565b60006020828403121561068c57600080fd5b600061069a84828501610650565b91505092915050565b6000602082840312156106b557600080fd5b60006106c384828501610665565b91505092915050565b6106d5816108d6565b82525050565b60006106e860268361086f565b91506106f382610953565b604082019050919050565b600061070b603a8361086f565b9150610716826109a2565b604082019050919050565b600061072e601d8361086f565b9150610739826109f1565b602082019050919050565b600061075160208361086f565b915061075c82610a1a565b602082019050919050565b6000610774600083610864565b915061077f82610a43565b600082019050919050565b6107938161091a565b82525050565b60006107a482610767565b9150819050919050565b60006020820190506107c360008301846106cc565b92915050565b600060208201905081810360008301526107e2816106db565b9050919050565b60006020820190508181036000830152610802816106fe565b9050919050565b6000602082019050818103600083015261082281610721565b9050919050565b6000602082019050818103600083015261084281610744565b9050919050565b600060208201905061085e600083018461078a565b92915050565b600081905092915050565b600082825260208201905092915050565b600061088b8261091a565b91506108968361091a565b9250827fffffffffffffffffffffffffffffffffffffffffffffffffffffffffffffffff038211156108cb576108ca610924565b5b828201905092915050565b60006108e1826108fa565b9050919050565b60006108f3826108fa565b9050919050565b600073ffffffffffffffffffffffffffffffffffffffff82169050919050565b6000819050919050565b7f4e487b7100000000000000000000000000000000000000000000000000000000600052601160045260246000fd5b7f4f776e61626c653a206e6577206f776e657220697320746865207a65726f206160008201527f6464726573730000000000000000000000000000000000000000000000000000602082015250565b7f416464726573733a20756e61626c6520746f2073656e642076616c75652c207260008201527f6563697069656e74206d61792068617665207265766572746564000000000000602082015250565b7f416464726573733a20696e73756666696369656e742062616c616e6365000000600082015250565b7f4f776e61626c653a2063616c6c6572206973206e6f7420746865206f776e6572600082015250565b50565b610a4f816108d6565b8114610a5a57600080fd5b50565b610a66816108e8565b8114610a7157600080fd5b5056fea2646970667358221220f5d7a234895c04d4200ce86e5834c8b0302a224c119c606c7bf67b406336fa7164736f6c6343000804003368747470733a2f2f626166796265696871677a3766717275697a77687372786c78776376736d616e6b6437777468356c723564327a667a6d336d6d63736a37777676752e697066732e6e667473746f726167652e6c696e6b2f6d657461646174612f",
  "linkReferences": {},
  "deployedLinkReferences": {}
}