{
  "_format": "hh-sol-artifact-1",
  "contractName": "City",
  "sourceName": "contracts/City.sol",
  "abi": [
    {
      "inputs": [],
      "stateMutability": "nonpayable",
      "type": "constructor"
    },
    {
      "anonymous": false,
      "inputs": [
        {
          "indexed": true,
          "internalType": "address",
          "name": "owner",
          "type": "address"
        },
        {
          "indexed": true,
          "internalType": "address",
          "name": "approved",
          "type": "address"
        },
        {
          "indexed": true,
          "internalType": "uint256",
          "name": "tokenId",
          "type": "uint256"
        }
      ],
      "name": "Approval",
      "type": "event"
    },
    {
      "anonymous": false,
      "inputs": [
        {
          "indexed": true,
          "internalType": "address",
          "name": "owner",
          "type": "address"
        },
        {
          "indexed": true,
          "internalType": "address",
          "name": "operator",
          "type": "address"
        },
        {
          "indexed": false,
          "internalType": "bool",
          "name": "approved",
          "type": "bool"
        }
      ],
      "name": "ApprovalForAll",
      "type": "event"
    },
    {
      "anonymous": false,
      "inputs": [
        {
          "indexed": true,
          "internalType": "address",
          "name": "previousOwner",
          "type": "address"
        },
        {
          "indexed": true,
          "internalType": "address",
          "name": "newOwner",
          "type": "address"
        }
      ],
      "name": "OwnershipTransferred",
      "type": "event"
    },
    {
      "anonymous": false,
      "inputs": [
        {
          "indexed": true,
          "internalType": "address",
          "name": "from",
          "type": "address"
        },
        {
          "indexed": true,
          "internalType": "address",
          "name": "to",
          "type": "address"
        },
        {
          "indexed": true,
          "internalType": "uint256",
          "name": "tokenId",
          "type": "uint256"
        }
      ],
      "name": "Transfer",
      "type": "event"
    },
    {
      "inputs": [],
      "name": "TOTAL_SUPPLY",
      "outputs": [
        {
          "internalType": "uint256",
          "name": "",
          "type": "uint256"
        }
      ],
      "stateMutability": "view",
      "type": "function"
    },
    {
      "inputs": [
        {
          "internalType": "address",
          "name": "to",
          "type": "address"
        },
        {
          "internalType": "uint256",
          "name": "tokenId",
          "type": "uint256"
        }
      ],
      "name": "approve",
      "outputs": [],
      "stateMutability": "nonpayable",
      "type": "function"
    },
    {
      "inputs": [
        {
          "internalType": "address",
          "name": "owner",
          "type": "address"
        }
      ],
      "name": "balanceOf",
      "outputs": [
        {
          "internalType": "uint256",
          "name": "",
          "type": "uint256"
        }
      ],
      "stateMutability": "view",
      "type": "function"
    },
    {
      "inputs": [],
      "name": "baseTokenURI",
      "outputs": [
        {
          "internalType": "string",
          "name": "",
          "type": "string"
        }
      ],
      "stateMutability": "view",
      "type": "function"
    },
    {
      "inputs": [
        {
          "internalType": "uint256",
          "name": "tokenId",
          "type": "uint256"
        }
      ],
      "name": "getApproved",
      "outputs": [
        {
          "internalType": "address",
          "name": "",
          "type": "address"
        }
      ],
      "stateMutability": "view",
      "type": "function"
    },
    {
      "inputs": [
        {
          "internalType": "uint256",
          "name": "tokenId",
          "type": "uint256"
        }
      ],
      "name": "getTokenValue",
      "outputs": [
        {
          "internalType": "uint256",
          "name": "",
          "type": "uint256"
        }
      ],
      "stateMutability": "view",
      "type": "function"
    },
    {
      "inputs": [
        {
          "internalType": "address",
          "name": "owner",
          "type": "address"
        },
        {
          "internalType": "address",
          "name": "operator",
          "type": "address"
        }
      ],
      "name": "isApprovedForAll",
      "outputs": [
        {
          "internalType": "bool",
          "name": "",
          "type": "bool"
        }
      ],
      "stateMutability": "view",
      "type": "function"
    },
    {
      "inputs": [
        {
          "internalType": "address",
          "name": "recipient",
          "type": "address"
        },
        {
          "internalType": "uint256",
          "name": "value",
          "type": "uint256"
        }
      ],
      "name": "mintTo",
      "outputs": [
        {
          "internalType": "uint256",
          "name": "",
          "type": "uint256"
        }
      ],
      "stateMutability": "payable",
      "type": "function"
    },
    {
      "inputs": [],
      "name": "name",
      "outputs": [
        {
          "internalType": "string",
          "name": "",
          "type": "string"
        }
      ],
      "stateMutability": "view",
      "type": "function"
    },
    {
      "inputs": [],
      "name": "owner",
      "outputs": [
        {
          "internalType": "address",
          "name": "",
          "type": "address"
        }
      ],
      "stateMutability": "view",
      "type": "function"
    },
    {
      "inputs": [
        {
          "internalType": "uint256",
          "name": "tokenId",
          "type": "uint256"
        }
      ],
      "name": "ownerOf",
      "outputs": [
        {
          "internalType": "address",
          "name": "",
          "type": "address"
        }
      ],
      "stateMutability": "view",
      "type": "function"
    },
    {
      "inputs": [
        {
          "internalType": "address",
          "name": "dest",
          "type": "address"
        }
      ],
      "name": "payments",
      "outputs": [
        {
          "internalType": "uint256",
          "name": "",
          "type": "uint256"
        }
      ],
      "stateMutability": "view",
      "type": "function"
    },
    {
      "inputs": [],
      "name": "renounceOwnership",
      "outputs": [],
      "stateMutability": "nonpayable",
      "type": "function"
    },
    {
      "inputs": [
        {
          "internalType": "address",
          "name": "from",
          "type": "address"
        },
        {
          "internalType": "address",
          "name": "to",
          "type": "address"
        },
        {
          "internalType": "uint256",
          "name": "tokenId",
          "type": "uint256"
        }
      ],
      "name": "safeTransferFrom",
      "outputs": [],
      "stateMutability": "nonpayable",
      "type": "function"
    },
    {
      "inputs": [
        {
          "internalType": "address",
          "name": "from",
          "type": "address"
        },
        {
          "internalType": "address",
          "name": "to",
          "type": "address"
        },
        {
          "internalType": "uint256",
          "name": "tokenId",
          "type": "uint256"
        },
        {
          "internalType": "bytes",
          "name": "data",
          "type": "bytes"
        }
      ],
      "name": "safeTransferFrom",
      "outputs": [],
      "stateMutability": "nonpayable",
      "type": "function"
    },
    {
      "inputs": [
        {
          "internalType": "address",
          "name": "operator",
          "type": "address"
        },
        {
          "internalType": "bool",
          "name": "approved",
          "type": "bool"
        }
      ],
      "name": "setApprovalForAll",
      "outputs": [],
      "stateMutability": "nonpayable",
      "type": "function"
    },
    {
      "inputs": [
        {
          "internalType": "string",
          "name": "_baseTokenURI",
          "type": "string"
        }
      ],
      "name": "setBaseTokenURI",
      "outputs": [],
      "stateMutability": "nonpayable",
      "type": "function"
    },
    {
      "inputs": [
        {
          "internalType": "bytes4",
          "name": "interfaceId",
          "type": "bytes4"
        }
      ],
      "name": "supportsInterface",
      "outputs": [
        {
          "internalType": "bool",
          "name": "",
          "type": "bool"
        }
      ],
      "stateMutability": "view",
      "type": "function"
    },
    {
      "inputs": [],
      "name": "symbol",
      "outputs": [
        {
          "internalType": "string",
          "name": "",
          "type": "string"
        }
      ],
      "stateMutability": "view",
      "type": "function"
    },
    {
      "inputs": [
        {
          "internalType": "uint256",
          "name": "tokenId",
          "type": "uint256"
        }
      ],
      "name": "tokenURI",
      "outputs": [
        {
          "internalType": "string",
          "name": "",
          "type": "string"
        }
      ],
      "stateMutability": "view",
      "type": "function"
    },
    {
      "inputs": [
        {
          "internalType": "uint256",
          "name": "",
          "type": "uint256"
        }
      ],
      "name": "tokenValue",
      "outputs": [
        {
          "internalType": "uint256",
          "name": "",
          "type": "uint256"
        }
      ],
      "stateMutability": "view",
      "type": "function"
    },
    {
      "inputs": [
        {
          "internalType": "address",
          "name": "from",
          "type": "address"
        },
        {
          "internalType": "address",
          "name": "to",
          "type": "address"
        },
        {
          "internalType": "uint256",
          "name": "tokenId",
          "type": "uint256"
        }
      ],
      "name": "transferFrom",
      "outputs": [],
      "stateMutability": "nonpayable",
      "type": "function"
    },
    {
      "inputs": [
        {
          "internalType": "address",
          "name": "newOwner",
          "type": "address"
        }
      ],
      "name": "transferOwnership",
      "outputs": [],
      "stateMutability": "nonpayable",
      "type": "function"
    },
    {
      "inputs": [
        {
          "internalType": "address payable",
          "name": "payee",
          "type": "address"
        }
      ],
      "name": "withdrawPayments",
      "outputs": [],
      "stateMutability": "nonpayable",
      "type": "function"
    }
  ],
  "bytecode": "0x60a06040523480156200001157600080fd5b506040518060400160405280600481526020017f43697479000000000000000000000000000000000000000000000000000000008152506040518060400160405280600381526020017f43545900000000000000000000000000000000000000000000000000000000008152508160009080519060200190620000969291906200023a565b508060019080519060200190620000af9291906200023a565b505050604051620000c090620002cb565b604051809103906000f080158015620000dd573d6000803e3d6000fd5b5073ffffffffffffffffffffffffffffffffffffffff1660808173ffffffffffffffffffffffffffffffffffffffff1660601b8152505062000134620001286200016c60201b60201c565b6200017460201b60201c565b6040518060a0016040528060628152602001620040f96062913960089080519060200190620001659291906200023a565b506200035d565b600033905090565b6000600660009054906101000a900473ffffffffffffffffffffffffffffffffffffffff16905081600660006101000a81548173ffffffffffffffffffffffffffffffffffffffff021916908373ffffffffffffffffffffffffffffffffffffffff1602179055508173ffffffffffffffffffffffffffffffffffffffff168173ffffffffffffffffffffffffffffffffffffffff167f8be0079c531659141344cd1fd0a4f28419497f9722a3daafe3b4186f6b6457e060405160405180910390a35050565b8280546200024890620002f8565b90600052602060002090601f0160209004810192826200026c5760008555620002b8565b82601f106200028757805160ff1916838001178555620002b8565b82800160010185558215620002b8579182015b82811115620002b75782518255916020019190600101906200029a565b5b509050620002c79190620002d9565b5090565b610bb7806200354283390190565b5b80821115620002f4576000816000905550600101620002da565b5090565b600060028204905060018216806200031157607f821691505b602082108114156200032857620003276200032e565b5b50919050565b7f4e487b7100000000000000000000000000000000000000000000000000000000600052602260045260246000fd5b60805160601c6131bf6200038360003960008181610e2401526114dc01526131bf6000f3fe60806040526004361061014b5760003560e01c80638da5cb5b116100b6578063cb9144911161006f578063cb91449114610493578063d10424c7146104d0578063d547cfb71461050d578063e2982c2114610538578063e985e9c514610575578063f2fde38b146105b25761014b565b80638da5cb5b14610383578063902d55a5146103ae57806395d89b41146103d9578063a22cb46514610404578063b88d4fde1461042d578063c87b56dd146104565761014b565b806331b3eb941161010857806331b3eb941461027057806342842e0e14610299578063449a52f8146102c25780636352211e146102f257806370a082311461032f578063715018a61461036c5761014b565b806301ffc9a71461015057806306fdde031461018d578063081812fc146101b8578063095ea7b3146101f557806323b872dd1461021e57806330176e1314610247575b600080fd5b34801561015c57600080fd5b50610177600480360381019061017291906122b3565b6105db565b604051610184919061272a565b60405180910390f35b34801561019957600080fd5b506101a26106bd565b6040516101af9190612745565b60405180910390f35b3480156101c457600080fd5b506101df60048036038101906101da9190612346565b61074f565b6040516101ec91906126a8565b60405180910390f35b34801561020157600080fd5b5061021c60048036038101906102179190612277565b610795565b005b34801561022a57600080fd5b5061024560048036038101906102409190612171565b6108ad565b005b34801561025357600080fd5b5061026e60048036038101906102699190612305565b61090d565b005b34801561027c57600080fd5b506102976004803603810190610292919061210c565b61092f565b005b3480156102a557600080fd5b506102c060048036038101906102bb9190612171565b610943565b005b6102dc60048036038101906102d79190612277565b610963565b6040516102e99190612947565b60405180910390f35b3480156102fe57600080fd5b5061031960048036038101906103149190612346565b610a3d565b60405161032691906126a8565b60405180910390f35b34801561033b57600080fd5b50610356600480360381019061035191906120e3565b610aef565b6040516103639190612947565b60405180910390f35b34801561037857600080fd5b50610381610ba7565b005b34801561038f57600080fd5b50610398610bbb565b6040516103a591906126a8565b60405180910390f35b3480156103ba57600080fd5b506103c3610be5565b6040516103d09190612947565b60405180910390f35b3480156103e557600080fd5b506103ee610beb565b6040516103fb9190612745565b60405180910390f35b34801561041057600080fd5b5061042b6004803603810190610426919061223b565b610c7d565b005b34801561043957600080fd5b50610454600480360381019061044f91906121c0565b610c93565b005b34801561046257600080fd5b5061047d60048036038101906104789190612346565b610cf5565b60405161048a9190612745565b60405180910390f35b34801561049f57600080fd5b506104ba60048036038101906104b59190612346565b610d5d565b6040516104c79190612947565b60405180910390f35b3480156104dc57600080fd5b506104f760048036038101906104f29190612346565b610d75565b6040516105049190612947565b60405180910390f35b34801561051957600080fd5b50610522610d92565b60405161052f9190612745565b60405180910390f35b34801561054457600080fd5b5061055f600480360381019061055a91906120e3565b610e20565b60405161056c9190612947565b60405180910390f35b34801561058157600080fd5b5061059c60048036038101906105979190612135565b610ed2565b6040516105a9919061272a565b60405180910390f35b3480156105be57600080fd5b506105d960048036038101906105d491906120e3565b610f66565b005b60007f80ac58cd000000000000000000000000000000000000000000000000000000007bffffffffffffffffffffffffffffffffffffffffffffffffffffffff1916827bffffffffffffffffffffffffffffffffffffffffffffffffffffffff191614806106a657507f5b5e139f000000000000000000000000000000000000000000000000000000007bffffffffffffffffffffffffffffffffffffffffffffffffffffffff1916827bffffffffffffffffffffffffffffffffffffffffffffffffffffffff1916145b806106b657506106b582610fea565b5b9050919050565b6060600080546106cc90612baf565b80601f01602080910402602001604051908101604052809291908181526020018280546106f890612baf565b80156107455780601f1061071a57610100808354040283529160200191610745565b820191906000526020600020905b81548152906001019060200180831161072857829003601f168201915b5050505050905090565b600061075a82611054565b6004600083815260200190815260200160002060009054906101000a900473ffffffffffffffffffffffffffffffffffffffff169050919050565b60006107a082610a3d565b90508073ffffffffffffffffffffffffffffffffffffffff168373ffffffffffffffffffffffffffffffffffffffff161415610811576040517f08c379a0000000000000000000000000000000000000000000000000000000008152600401610808906128e7565b60405180910390fd5b8073ffffffffffffffffffffffffffffffffffffffff1661083061109f565b73ffffffffffffffffffffffffffffffffffffffff16148061085f575061085e8161085961109f565b610ed2565b5b61089e576040517f08c379a000000000000000000000000000000000000000000000000000000000815260040161089590612867565b60405180910390fd5b6108a883836110a7565b505050565b6108be6108b861109f565b82611160565b6108fd576040517f08c379a00000000000000000000000000000000000000000000000000000000081526004016108f490612927565b60405180910390fd5b6109088383836111f5565b505050565b61091561145c565b806008908051906020019061092b929190611edd565b5050565b61093761145c565b610940816114da565b50565b61095e83838360405180602001604052806000815250610c93565b505050565b6000806109706007611568565b905061271081106109b6576040517f08c379a00000000000000000000000000000000000000000000000000000000081526004016109ad90612907565b60405180910390fd5b8234146109f8576040517f08c379a00000000000000000000000000000000000000000000000000000000081526004016109ef90612827565b60405180910390fd5b610a026007611576565b6000610a0e6007611568565b9050610a1a858261158c565b836009600083815260200190815260200160002081905550809250505092915050565b6000806002600084815260200190815260200160002060009054906101000a900473ffffffffffffffffffffffffffffffffffffffff169050600073ffffffffffffffffffffffffffffffffffffffff168173ffffffffffffffffffffffffffffffffffffffff161415610ae6576040517f08c379a0000000000000000000000000000000000000000000000000000000008152600401610add906128c7565b60405180910390fd5b80915050919050565b60008073ffffffffffffffffffffffffffffffffffffffff168273ffffffffffffffffffffffffffffffffffffffff161415610b60576040517f08c379a0000000000000000000000000000000000000000000000000000000008152600401610b5790612847565b60405180910390fd5b600360008373ffffffffffffffffffffffffffffffffffffffff1673ffffffffffffffffffffffffffffffffffffffff168152602001908152602001600020549050919050565b610baf61145c565b610bb960006115aa565b565b6000600660009054906101000a900473ffffffffffffffffffffffffffffffffffffffff16905090565b61271081565b606060018054610bfa90612baf565b80601f0160208091040260200160405190810160405280929190818152602001828054610c2690612baf565b8015610c735780601f10610c4857610100808354040283529160200191610c73565b820191906000526020600020905b815481529060010190602001808311610c5657829003601f168201915b5050505050905090565b610c8f610c8861109f565b8383611670565b5050565b610ca4610c9e61109f565b83611160565b610ce3576040517f08c379a0000000000000000000000000000000000000000000000000000000008152600401610cda90612927565b60405180910390fd5b610cef848484846117dd565b50505050565b6060610d0082611054565b6000610d0a611839565b90506000815111610d2a5760405180602001604052806000815250610d55565b80610d34846118cb565b604051602001610d45929190612684565b6040516020818303038152906040525b915050919050565b60096020528060005260406000206000915090505481565b600060096000838152602001908152602001600020549050919050565b60088054610d9f90612baf565b80601f0160208091040260200160405190810160405280929190818152602001828054610dcb90612baf565b8015610e185780601f10610ded57610100808354040283529160200191610e18565b820191906000526020600020905b815481529060010190602001808311610dfb57829003601f168201915b505050505081565b60007f000000000000000000000000000000000000000000000000000000000000000073ffffffffffffffffffffffffffffffffffffffff1663e3a9db1a836040518263ffffffff1660e01b8152600401610e7b91906126a8565b60206040518083038186803b158015610e9357600080fd5b505afa158015610ea7573d6000803e3d6000fd5b505050506040513d601f19601f82011682018060405250810190610ecb919061236f565b9050919050565b6000600560008473ffffffffffffffffffffffffffffffffffffffff1673ffffffffffffffffffffffffffffffffffffffff16815260200190815260200160002060008373ffffffffffffffffffffffffffffffffffffffff1673ffffffffffffffffffffffffffffffffffffffff16815260200190815260200160002060009054906101000a900460ff16905092915050565b610f6e61145c565b600073ffffffffffffffffffffffffffffffffffffffff168173ffffffffffffffffffffffffffffffffffffffff161415610fde576040517f08c379a0000000000000000000000000000000000000000000000000000000008152600401610fd590612787565b60405180910390fd5b610fe7816115aa565b50565b60007f01ffc9a7000000000000000000000000000000000000000000000000000000007bffffffffffffffffffffffffffffffffffffffffffffffffffffffff1916827bffffffffffffffffffffffffffffffffffffffffffffffffffffffff1916149050919050565b61105d81611a78565b61109c576040517f08c379a0000000000000000000000000000000000000000000000000000000008152600401611093906128c7565b60405180910390fd5b50565b600033905090565b816004600083815260200190815260200160002060006101000a81548173ffffffffffffffffffffffffffffffffffffffff021916908373ffffffffffffffffffffffffffffffffffffffff160217905550808273ffffffffffffffffffffffffffffffffffffffff1661111a83610a3d565b73ffffffffffffffffffffffffffffffffffffffff167f8c5be1e5ebec7d5bd14f71427d1e84f3dd0314c0f7b2291e5b200ac8c7c3b92560405160405180910390a45050565b60008061116c83610a3d565b90508073ffffffffffffffffffffffffffffffffffffffff168473ffffffffffffffffffffffffffffffffffffffff1614806111ae57506111ad8185610ed2565b5b806111ec57508373ffffffffffffffffffffffffffffffffffffffff166111d48461074f565b73ffffffffffffffffffffffffffffffffffffffff16145b91505092915050565b8273ffffffffffffffffffffffffffffffffffffffff1661121582610a3d565b73ffffffffffffffffffffffffffffffffffffffff161461126b576040517f08c379a0000000000000000000000000000000000000000000000000000000008152600401611262906127a7565b60405180910390fd5b600073ffffffffffffffffffffffffffffffffffffffff168273ffffffffffffffffffffffffffffffffffffffff1614156112db576040517f08c379a00000000000000000000000000000000000000000000000000000000081526004016112d2906127e7565b60405180910390fd5b6112e6838383611ae4565b6112f16000826110a7565b6001600360008573ffffffffffffffffffffffffffffffffffffffff1673ffffffffffffffffffffffffffffffffffffffff16815260200190815260200160002060008282546113419190612ab3565b925050819055506001600360008473ffffffffffffffffffffffffffffffffffffffff1673ffffffffffffffffffffffffffffffffffffffff16815260200190815260200160002060008282546113989190612a2c565b92505081905550816002600083815260200190815260200160002060006101000a81548173ffffffffffffffffffffffffffffffffffffffff021916908373ffffffffffffffffffffffffffffffffffffffff160217905550808273ffffffffffffffffffffffffffffffffffffffff168473ffffffffffffffffffffffffffffffffffffffff167fddf252ad1be2c89b69c2b068fc378daa952ba7f163c4a11628f55a4df523b3ef60405160405180910390a4611457838383611ae9565b505050565b61146461109f565b73ffffffffffffffffffffffffffffffffffffffff16611482610bbb565b73ffffffffffffffffffffffffffffffffffffffff16146114d8576040517f08c379a00000000000000000000000000000000000000000000000000000000081526004016114cf906128a7565b60405180910390fd5b565b7f000000000000000000000000000000000000000000000000000000000000000073ffffffffffffffffffffffffffffffffffffffff166351cff8d9826040518263ffffffff1660e01b815260040161153391906126c3565b600060405180830381600087803b15801561154d57600080fd5b505af1158015611561573d6000803e3d6000fd5b5050505050565b600081600001549050919050565b6001816000016000828254019250508190555050565b6115a6828260405180602001604052806000815250611aee565b5050565b6000600660009054906101000a900473ffffffffffffffffffffffffffffffffffffffff16905081600660006101000a81548173ffffffffffffffffffffffffffffffffffffffff021916908373ffffffffffffffffffffffffffffffffffffffff1602179055508173ffffffffffffffffffffffffffffffffffffffff168173ffffffffffffffffffffffffffffffffffffffff167f8be0079c531659141344cd1fd0a4f28419497f9722a3daafe3b4186f6b6457e060405160405180910390a35050565b8173ffffffffffffffffffffffffffffffffffffffff168373ffffffffffffffffffffffffffffffffffffffff1614156116df576040517f08c379a00000000000000000000000000000000000000000000000000000000081526004016116d690612807565b60405180910390fd5b80600560008573ffffffffffffffffffffffffffffffffffffffff1673ffffffffffffffffffffffffffffffffffffffff16815260200190815260200160002060008473ffffffffffffffffffffffffffffffffffffffff1673ffffffffffffffffffffffffffffffffffffffff16815260200190815260200160002060006101000a81548160ff0219169083151502179055508173ffffffffffffffffffffffffffffffffffffffff168373ffffffffffffffffffffffffffffffffffffffff167f17307eab39ab6107e8899845ad3d59bd9653f200f220920489ca2b5937696c31836040516117d0919061272a565b60405180910390a3505050565b6117e88484846111f5565b6117f484848484611b49565b611833576040517f08c379a000000000000000000000000000000000000000000000000000000000815260040161182a90612767565b60405180910390fd5b50505050565b60606008805461184890612baf565b80601f016020809104026020016040519081016040528092919081815260200182805461187490612baf565b80156118c15780601f10611896576101008083540402835291602001916118c1565b820191906000526020600020905b8154815290600101906020018083116118a457829003601f168201915b5050505050905090565b60606000821415611913576040518060400160405280600181526020017f30000000000000000000000000000000000000000000000000000000000000008152509050611a73565b600082905060005b6000821461194557808061192e90612c12565b915050600a8261193e9190612a82565b915061191b565b60008167ffffffffffffffff811115611987577f4e487b7100000000000000000000000000000000000000000000000000000000600052604160045260246000fd5b6040519080825280601f01601f1916602001820160405280156119b95781602001600182028036833780820191505090505b5090505b60008514611a6c576001826119d29190612ab3565b9150600a856119e19190612c5b565b60306119ed9190612a2c565b60f81b818381518110611a29577f4e487b7100000000000000000000000000000000000000000000000000000000600052603260045260246000fd5b60200101907effffffffffffffffffffffffffffffffffffffffffffffffffffffffffffff1916908160001a905350600a85611a659190612a82565b94506119bd565b8093505050505b919050565b60008073ffffffffffffffffffffffffffffffffffffffff166002600084815260200190815260200160002060009054906101000a900473ffffffffffffffffffffffffffffffffffffffff1673ffffffffffffffffffffffffffffffffffffffff1614159050919050565b505050565b505050565b611af88383611ce0565b611b056000848484611b49565b611b44576040517f08c379a0000000000000000000000000000000000000000000000000000000008152600401611b3b90612767565b60405180910390fd5b505050565b6000611b6a8473ffffffffffffffffffffffffffffffffffffffff16611eba565b15611cd3578373ffffffffffffffffffffffffffffffffffffffff1663150b7a02611b9361109f565b8786866040518563ffffffff1660e01b8152600401611bb594939291906126de565b602060405180830381600087803b158015611bcf57600080fd5b505af1925050508015611c0057506040513d601f19601f82011682018060405250810190611bfd91906122dc565b60015b611c83573d8060008114611c30576040519150601f19603f3d011682016040523d82523d6000602084013e611c35565b606091505b50600081511415611c7b576040517f08c379a0000000000000000000000000000000000000000000000000000000008152600401611c7290612767565b60405180910390fd5b805181602001fd5b63150b7a0260e01b7bffffffffffffffffffffffffffffffffffffffffffffffffffffffff1916817bffffffffffffffffffffffffffffffffffffffffffffffffffffffff191614915050611cd8565b600190505b949350505050565b600073ffffffffffffffffffffffffffffffffffffffff168273ffffffffffffffffffffffffffffffffffffffff161415611d50576040517f08c379a0000000000000000000000000000000000000000000000000000000008152600401611d4790612887565b60405180910390fd5b611d5981611a78565b15611d99576040517f08c379a0000000000000000000000000000000000000000000000000000000008152600401611d90906127c7565b60405180910390fd5b611da560008383611ae4565b6001600360008473ffffffffffffffffffffffffffffffffffffffff1673ffffffffffffffffffffffffffffffffffffffff1681526020019081526020016000206000828254611df59190612a2c565b92505081905550816002600083815260200190815260200160002060006101000a81548173ffffffffffffffffffffffffffffffffffffffff021916908373ffffffffffffffffffffffffffffffffffffffff160217905550808273ffffffffffffffffffffffffffffffffffffffff16600073ffffffffffffffffffffffffffffffffffffffff167fddf252ad1be2c89b69c2b068fc378daa952ba7f163c4a11628f55a4df523b3ef60405160405180910390a4611eb660008383611ae9565b5050565b6000808273ffffffffffffffffffffffffffffffffffffffff163b119050919050565b828054611ee990612baf565b90600052602060002090601f016020900481019282611f0b5760008555611f52565b82601f10611f2457805160ff1916838001178555611f52565b82800160010185558215611f52579182015b82811115611f51578251825591602001919060010190611f36565b5b509050611f5f9190611f63565b5090565b5b80821115611f7c576000816000905550600101611f64565b5090565b6000611f93611f8e84612987565b612962565b905082815260208101848484011115611fab57600080fd5b611fb6848285612b6d565b509392505050565b6000611fd1611fcc846129b8565b612962565b905082815260208101848484011115611fe957600080fd5b611ff4848285612b6d565b509392505050565b60008135905061200b81613116565b92915050565b6000813590506120208161312d565b92915050565b60008135905061203581613144565b92915050565b60008135905061204a8161315b565b92915050565b60008151905061205f8161315b565b92915050565b600082601f83011261207657600080fd5b8135612086848260208601611f80565b91505092915050565b600082601f8301126120a057600080fd5b81356120b0848260208601611fbe565b91505092915050565b6000813590506120c881613172565b92915050565b6000815190506120dd81613172565b92915050565b6000602082840312156120f557600080fd5b600061210384828501611ffc565b91505092915050565b60006020828403121561211e57600080fd5b600061212c84828501612011565b91505092915050565b6000806040838503121561214857600080fd5b600061215685828601611ffc565b925050602061216785828601611ffc565b9150509250929050565b60008060006060848603121561218657600080fd5b600061219486828701611ffc565b93505060206121a586828701611ffc565b92505060406121b6868287016120b9565b9150509250925092565b600080600080608085870312156121d657600080fd5b60006121e487828801611ffc565b94505060206121f587828801611ffc565b9350506040612206878288016120b9565b925050606085013567ffffffffffffffff81111561222357600080fd5b61222f87828801612065565b91505092959194509250565b6000806040838503121561224e57600080fd5b600061225c85828601611ffc565b925050602061226d85828601612026565b9150509250929050565b6000806040838503121561228a57600080fd5b600061229885828601611ffc565b92505060206122a9858286016120b9565b9150509250929050565b6000602082840312156122c557600080fd5b60006122d38482850161203b565b91505092915050565b6000602082840312156122ee57600080fd5b60006122fc84828501612050565b91505092915050565b60006020828403121561231757600080fd5b600082013567ffffffffffffffff81111561233157600080fd5b61233d8482850161208f565b91505092915050565b60006020828403121561235857600080fd5b6000612366848285016120b9565b91505092915050565b60006020828403121561238157600080fd5b600061238f848285016120ce565b91505092915050565b6123a181612af9565b82525050565b6123b081612ae7565b82525050565b6123bf81612b0b565b82525050565b60006123d0826129e9565b6123da81856129ff565b93506123ea818560208601612b7c565b6123f381612d48565b840191505092915050565b6000612409826129f4565b6124138185612a10565b9350612423818560208601612b7c565b61242c81612d48565b840191505092915050565b6000612442826129f4565b61244c8185612a21565b935061245c818560208601612b7c565b80840191505092915050565b6000612475603283612a10565b915061248082612d59565b604082019050919050565b6000612498602683612a10565b91506124a382612da8565b604082019050919050565b60006124bb602583612a10565b91506124c682612df7565b604082019050919050565b60006124de601c83612a10565b91506124e982612e46565b602082019050919050565b6000612501602483612a10565b915061250c82612e6f565b604082019050919050565b6000612524601983612a10565b915061252f82612ebe565b602082019050919050565b6000612547602f83612a10565b915061255282612ee7565b604082019050919050565b600061256a602983612a10565b915061257582612f36565b604082019050919050565b600061258d603e83612a10565b915061259882612f85565b604082019050919050565b60006125b0602083612a10565b91506125bb82612fd4565b602082019050919050565b60006125d3602083612a10565b91506125de82612ffd565b602082019050919050565b60006125f6601883612a10565b915061260182613026565b602082019050919050565b6000612619602183612a10565b91506126248261304f565b604082019050919050565b600061263c601283612a10565b91506126478261309e565b602082019050919050565b600061265f602e83612a10565b915061266a826130c7565b604082019050919050565b61267e81612b63565b82525050565b60006126908285612437565b915061269c8284612437565b91508190509392505050565b60006020820190506126bd60008301846123a7565b92915050565b60006020820190506126d86000830184612398565b92915050565b60006080820190506126f360008301876123a7565b61270060208301866123a7565b61270d6040830185612675565b818103606083015261271f81846123c5565b905095945050505050565b600060208201905061273f60008301846123b6565b92915050565b6000602082019050818103600083015261275f81846123fe565b905092915050565b6000602082019050818103600083015261278081612468565b9050919050565b600060208201905081810360008301526127a08161248b565b9050919050565b600060208201905081810360008301526127c0816124ae565b9050919050565b600060208201905081810360008301526127e0816124d1565b9050919050565b60006020820190508181036000830152612800816124f4565b9050919050565b6000602082019050818103600083015261282081612517565b9050919050565b600060208201905081810360008301526128408161253a565b9050919050565b600060208201905081810360008301526128608161255d565b9050919050565b6000602082019050818103600083015261288081612580565b9050919050565b600060208201905081810360008301526128a0816125a3565b9050919050565b600060208201905081810360008301526128c0816125c6565b9050919050565b600060208201905081810360008301526128e0816125e9565b9050919050565b600060208201905081810360008301526129008161260c565b9050919050565b600060208201905081810360008301526129208161262f565b9050919050565b6000602082019050818103600083015261294081612652565b9050919050565b600060208201905061295c6000830184612675565b92915050565b600061296c61297d565b90506129788282612be1565b919050565b6000604051905090565b600067ffffffffffffffff8211156129a2576129a1612d19565b5b6129ab82612d48565b9050602081019050919050565b600067ffffffffffffffff8211156129d3576129d2612d19565b5b6129dc82612d48565b9050602081019050919050565b600081519050919050565b600081519050919050565b600082825260208201905092915050565b600082825260208201905092915050565b600081905092915050565b6000612a3782612b63565b9150612a4283612b63565b9250827fffffffffffffffffffffffffffffffffffffffffffffffffffffffffffffffff03821115612a7757612a76612c8c565b5b828201905092915050565b6000612a8d82612b63565b9150612a9883612b63565b925082612aa857612aa7612cbb565b5b828204905092915050565b6000612abe82612b63565b9150612ac983612b63565b925082821015612adc57612adb612c8c565b5b828203905092915050565b6000612af282612b43565b9050919050565b6000612b0482612b43565b9050919050565b60008115159050919050565b60007fffffffff0000000000000000000000000000000000000000000000000000000082169050919050565b600073ffffffffffffffffffffffffffffffffffffffff82169050919050565b6000819050919050565b82818337600083830152505050565b60005b83811015612b9a578082015181840152602081019050612b7f565b83811115612ba9576000848401525b50505050565b60006002820490506001821680612bc757607f821691505b60208210811415612bdb57612bda612cea565b5b50919050565b612bea82612d48565b810181811067ffffffffffffffff82111715612c0957612c08612d19565b5b80604052505050565b6000612c1d82612b63565b91507fffffffffffffffffffffffffffffffffffffffffffffffffffffffffffffffff821415612c5057612c4f612c8c565b5b600182019050919050565b6000612c6682612b63565b9150612c7183612b63565b925082612c8157612c80612cbb565b5b828206905092915050565b7f4e487b7100000000000000000000000000000000000000000000000000000000600052601160045260246000fd5b7f4e487b7100000000000000000000000000000000000000000000000000000000600052601260045260246000fd5b7f4e487b7100000000000000000000000000000000000000000000000000000000600052602260045260246000fd5b7f4e487b7100000000000000000000000000000000000000000000000000000000600052604160045260246000fd5b6000601f19601f8301169050919050565b7f4552433732313a207472616e7366657220746f206e6f6e20455243373231526560008201527f63656976657220696d706c656d656e7465720000000000000000000000000000602082015250565b7f4f776e61626c653a206e6577206f776e657220697320746865207a65726f206160008201527f6464726573730000000000000000000000000000000000000000000000000000602082015250565b7f4552433732313a207472616e736665722066726f6d20696e636f72726563742060008201527f6f776e6572000000000000000000000000000000000000000000000000000000602082015250565b7f4552433732313a20746f6b656e20616c7265616479206d696e74656400000000600082015250565b7f4552433732313a207472616e7366657220746f20746865207a65726f2061646460008201527f7265737300000000000000000000000000000000000000000000000000000000602082015250565b7f4552433732313a20617070726f766520746f2063616c6c657200000000000000600082015250565b7f5472616e73616374696f6e2076616c756520646964206e6f7420657175616c2060008201527f7468652076616c756520676976656e0000000000000000000000000000000000602082015250565b7f4552433732313a2061646472657373207a65726f206973206e6f74206120766160008201527f6c6964206f776e65720000000000000000000000000000000000000000000000602082015250565b7f4552433732313a20617070726f76652063616c6c6572206973206e6f7420746f60008201527f6b656e206f776e6572206e6f7220617070726f76656420666f7220616c6c0000602082015250565b7f4552433732313a206d696e7420746f20746865207a65726f2061646472657373600082015250565b7f4f776e61626c653a2063616c6c6572206973206e6f7420746865206f776e6572600082015250565b7f4552433732313a20696e76616c696420746f6b656e2049440000000000000000600082015250565b7f4552433732313a20617070726f76616c20746f2063757272656e74206f776e6560008201527f7200000000000000000000000000000000000000000000000000000000000000602082015250565b7f4d617820737570706c7920726561636865640000000000000000000000000000600082015250565b7f4552433732313a2063616c6c6572206973206e6f7420746f6b656e206f776e6560008201527f72206e6f7220617070726f766564000000000000000000000000000000000000602082015250565b61311f81612ae7565b811461312a57600080fd5b50565b61313681612af9565b811461314157600080fd5b50565b61314d81612b0b565b811461315857600080fd5b50565b61316481612b17565b811461316f57600080fd5b50565b61317b81612b63565b811461318657600080fd5b5056fea2646970667358221220ce1c93a7705c0746923b11e5af16ecf88821a27e5be2f1a0054d95fbe32bf27464736f6c63430008040033608060405234801561001057600080fd5b5061002d61002261003260201b60201c565b61003a60201b60201c565b6100fe565b600033905090565b60008060009054906101000a900473ffffffffffffffffffffffffffffffffffffffff169050816000806101000a81548173ffffffffffffffffffffffffffffffffffffffff021916908373ffffffffffffffffffffffffffffffffffffffff1602179055508173ffffffffffffffffffffffffffffffffffffffff168173ffffffffffffffffffffffffffffffffffffffff167f8be0079c531659141344cd1fd0a4f28419497f9722a3daafe3b4186f6b6457e060405160405180910390a35050565b610aaa8061010d6000396000f3fe6080604052600436106100555760003560e01c806351cff8d91461005a578063715018a6146100835780638da5cb5b1461009a578063e3a9db1a146100c5578063f2fde38b14610102578063f340fa011461012b575b600080fd5b34801561006657600080fd5b50610081600480360381019061007c91906106a3565b610147565b005b34801561008f57600080fd5b50610098610253565b005b3480156100a657600080fd5b506100af610267565b6040516100bc91906107ae565b60405180910390f35b3480156100d157600080fd5b506100ec60048036038101906100e7919061067a565b610290565b6040516100f99190610849565b60405180910390f35b34801561010e57600080fd5b506101296004803603810190610124919061067a565b6102d9565b005b6101456004803603810190610140919061067a565b61035d565b005b61014f610412565b6000600160008373ffffffffffffffffffffffffffffffffffffffff1673ffffffffffffffffffffffffffffffffffffffff1681526020019081526020016000205490506000600160008473ffffffffffffffffffffffffffffffffffffffff1673ffffffffffffffffffffffffffffffffffffffff16815260200190815260200160002081905550610201818373ffffffffffffffffffffffffffffffffffffffff1661049090919063ffffffff16565b8173ffffffffffffffffffffffffffffffffffffffff167f7084f5476618d8e60b11ef0d7d3f06914655adb8793e28ff7f018d4c76d505d5826040516102479190610849565b60405180910390a25050565b61025b610412565b6102656000610584565b565b60008060009054906101000a900473ffffffffffffffffffffffffffffffffffffffff16905090565b6000600160008373ffffffffffffffffffffffffffffffffffffffff1673ffffffffffffffffffffffffffffffffffffffff168152602001908152602001600020549050919050565b6102e1610412565b600073ffffffffffffffffffffffffffffffffffffffff168173ffffffffffffffffffffffffffffffffffffffff161415610351576040517f08c379a0000000000000000000000000000000000000000000000000000000008152600401610348906107c9565b60405180910390fd5b61035a81610584565b50565b610365610412565b600034905080600160008473ffffffffffffffffffffffffffffffffffffffff1673ffffffffffffffffffffffffffffffffffffffff16815260200190815260200160002060008282546103b99190610880565b925050819055508173ffffffffffffffffffffffffffffffffffffffff167f2da466a7b24304f47e87fa2e1e5a81b9831ce54fec19055ce277ca2f39ba42c4826040516104069190610849565b60405180910390a25050565b61041a610648565b73ffffffffffffffffffffffffffffffffffffffff16610438610267565b73ffffffffffffffffffffffffffffffffffffffff161461048e576040517f08c379a000000000000000000000000000000000000000000000000000000000815260040161048590610829565b60405180910390fd5b565b804710156104d3576040517f08c379a00000000000000000000000000000000000000000000000000000000081526004016104ca90610809565b60405180910390fd5b60008273ffffffffffffffffffffffffffffffffffffffff16826040516104f990610799565b60006040518083038185875af1925050503d8060008114610536576040519150601f19603f3d011682016040523d82523d6000602084013e61053b565b606091505b505090508061057f576040517f08c379a0000000000000000000000000000000000000000000000000000000008152600401610576906107e9565b60405180910390fd5b505050565b60008060009054906101000a900473ffffffffffffffffffffffffffffffffffffffff169050816000806101000a81548173ffffffffffffffffffffffffffffffffffffffff021916908373ffffffffffffffffffffffffffffffffffffffff1602179055508173ffffffffffffffffffffffffffffffffffffffff168173ffffffffffffffffffffffffffffffffffffffff167f8be0079c531659141344cd1fd0a4f28419497f9722a3daafe3b4186f6b6457e060405160405180910390a35050565b600033905090565b60008135905061065f81610a46565b92915050565b60008135905061067481610a5d565b92915050565b60006020828403121561068c57600080fd5b600061069a84828501610650565b91505092915050565b6000602082840312156106b557600080fd5b60006106c384828501610665565b91505092915050565b6106d5816108d6565b82525050565b60006106e860268361086f565b91506106f382610953565b604082019050919050565b600061070b603a8361086f565b9150610716826109a2565b604082019050919050565b600061072e601d8361086f565b9150610739826109f1565b602082019050919050565b600061075160208361086f565b915061075c82610a1a565b602082019050919050565b6000610774600083610864565b915061077f82610a43565b600082019050919050565b6107938161091a565b82525050565b60006107a482610767565b9150819050919050565b60006020820190506107c360008301846106cc565b92915050565b600060208201905081810360008301526107e2816106db565b9050919050565b60006020820190508181036000830152610802816106fe565b9050919050565b6000602082019050818103600083015261082281610721565b9050919050565b6000602082019050818103600083015261084281610744565b9050919050565b600060208201905061085e600083018461078a565b92915050565b600081905092915050565b600082825260208201905092915050565b600061088b8261091a565b91506108968361091a565b9250827fffffffffffffffffffffffffffffffffffffffffffffffffffffffffffffffff038211156108cb576108ca610924565b5b828201905092915050565b60006108e1826108fa565b9050919050565b60006108f3826108fa565b9050919050565b600073ffffffffffffffffffffffffffffffffffffffff82169050919050565b6000819050919050565b7f4e487b7100000000000000000000000000000000000000000000000000000000600052601160045260246000fd5b7f4f776e61626c653a206e6577206f776e657220697320746865207a65726f206160008201527f6464726573730000000000000000000000000000000000000000000000000000602082015250565b7f416464726573733a20756e61626c6520746f2073656e642076616c75652c207260008201527f6563697069656e74206d61792068617665207265766572746564000000000000602082015250565b7f416464726573733a20696e73756666696369656e742062616c616e6365000000600082015250565b7f4f776e61626c653a2063616c6c6572206973206e6f7420746865206f776e6572600082015250565b50565b610a4f816108d6565b8114610a5a57600080fd5b50565b610a66816108e8565b8114610a7157600080fd5b5056fea2646970667358221220f5d7a234895c04d4200ce86e5834c8b0302a224c119c606c7bf67b406336fa7164736f6c6343000804003368747470733a2f2f626166796265696871677a3766717275697a77687372786c78776376736d616e6b6437777468356c723564327a667a6d336d6d63736a37777676752e697066732e6e667473746f726167652e6c696e6b2f6d657461646174612f",
  "linkReferences": {},
  "deployedLinkReferences": {}
}