{
  "_format": "hh-sol-artifact-1",
  "contractName": "City",
  "sourceName": "contracts/City.sol",
  "abi": [
    {
      "inputs": [],
      "stateMutability": "nonpayable",
      "type": "constructor"
    },
    {
      "anonymous": false,
      "inputs": [
        {
          "indexed": true,
          "internalType": "address",
          "name": "owner",
          "type": "address"
        },
        {
          "indexed": true,
          "internalType": "address",
          "name": "approved",
          "type": "address"
        },
        {
          "indexed": true,
          "internalType": "uint256",
          "name": "tokenId",
          "type": "uint256"
        }
      ],
      "name": "Approval",
      "type": "event"
    },
    {
      "anonymous": false,
      "inputs": [
        {
          "indexed": true,
          "internalType": "address",
          "name": "owner",
          "type": "address"
        },
        {
          "indexed": true,
          "internalType": "address",
          "name": "operator",
          "type": "address"
        },
        {
          "indexed": false,
          "internalType": "bool",
          "name": "approved",
          "type": "bool"
        }
      ],
      "name": "ApprovalForAll",
      "type": "event"
    },
    {
      "anonymous": false,
      "inputs": [
        {
          "indexed": true,
          "internalType": "address",
          "name": "previousOwner",
          "type": "address"
        },
        {
          "indexed": true,
          "internalType": "address",
          "name": "newOwner",
          "type": "address"
        }
      ],
      "name": "OwnershipTransferred",
      "type": "event"
    },
    {
      "anonymous": false,
      "inputs": [
        {
          "indexed": true,
          "internalType": "address",
          "name": "from",
          "type": "address"
        },
        {
          "indexed": true,
          "internalType": "address",
          "name": "to",
          "type": "address"
        },
        {
          "indexed": true,
          "internalType": "uint256",
          "name": "tokenId",
          "type": "uint256"
        }
      ],
      "name": "Transfer",
      "type": "event"
    },
    {
      "inputs": [],
      "name": "TOTAL_SUPPLY",
      "outputs": [
        {
          "internalType": "uint256",
          "name": "",
          "type": "uint256"
        }
      ],
      "stateMutability": "view",
      "type": "function"
    },
    {
      "inputs": [
        {
          "internalType": "address",
          "name": "to",
          "type": "address"
        },
        {
          "internalType": "uint256",
          "name": "tokenId",
          "type": "uint256"
        }
      ],
      "name": "approve",
      "outputs": [],
      "stateMutability": "nonpayable",
      "type": "function"
    },
    {
      "inputs": [
        {
          "internalType": "address",
          "name": "owner",
          "type": "address"
        }
      ],
      "name": "balanceOf",
      "outputs": [
        {
          "internalType": "uint256",
          "name": "",
          "type": "uint256"
        }
      ],
      "stateMutability": "view",
      "type": "function"
    },
    {
      "inputs": [],
      "name": "baseTokenURI",
      "outputs": [
        {
          "internalType": "string",
          "name": "",
          "type": "string"
        }
      ],
      "stateMutability": "view",
      "type": "function"
    },
    {
      "inputs": [
        {
          "internalType": "uint256",
          "name": "tokenId",
          "type": "uint256"
        }
      ],
      "name": "getApproved",
      "outputs": [
        {
          "internalType": "address",
          "name": "",
          "type": "address"
        }
      ],
      "stateMutability": "view",
      "type": "function"
    },
    {
      "inputs": [],
      "name": "getCurrentToken",
      "outputs": [
        {
          "internalType": "uint256",
          "name": "",
          "type": "uint256"
        }
      ],
      "stateMutability": "view",
      "type": "function"
    },
    {
      "inputs": [
        {
          "internalType": "uint256",
          "name": "tokenId",
          "type": "uint256"
        }
      ],
      "name": "getTokenValue",
      "outputs": [
        {
          "internalType": "uint256",
          "name": "",
          "type": "uint256"
        }
      ],
      "stateMutability": "view",
      "type": "function"
    },
    {
      "inputs": [
        {
          "internalType": "address",
          "name": "owner",
          "type": "address"
        },
        {
          "internalType": "address",
          "name": "operator",
          "type": "address"
        }
      ],
      "name": "isApprovedForAll",
      "outputs": [
        {
          "internalType": "bool",
          "name": "",
          "type": "bool"
        }
      ],
      "stateMutability": "view",
      "type": "function"
    },
    {
      "inputs": [
        {
          "internalType": "address",
          "name": "recipient",
          "type": "address"
        },
        {
          "internalType": "uint256",
          "name": "value",
          "type": "uint256"
        }
      ],
      "name": "mintTo",
      "outputs": [
        {
          "internalType": "uint256",
          "name": "",
          "type": "uint256"
        }
      ],
      "stateMutability": "payable",
      "type": "function"
    },
    {
      "inputs": [],
      "name": "name",
      "outputs": [
        {
          "internalType": "string",
          "name": "",
          "type": "string"
        }
      ],
      "stateMutability": "view",
      "type": "function"
    },
    {
      "inputs": [],
      "name": "owner",
      "outputs": [
        {
          "internalType": "address",
          "name": "",
          "type": "address"
        }
      ],
      "stateMutability": "view",
      "type": "function"
    },
    {
      "inputs": [
        {
          "internalType": "uint256",
          "name": "tokenId",
          "type": "uint256"
        }
      ],
      "name": "ownerOf",
      "outputs": [
        {
          "internalType": "address",
          "name": "",
          "type": "address"
        }
      ],
      "stateMutability": "view",
      "type": "function"
    },
    {
      "inputs": [
        {
          "internalType": "address",
          "name": "dest",
          "type": "address"
        }
      ],
      "name": "payments",
      "outputs": [
        {
          "internalType": "uint256",
          "name": "",
          "type": "uint256"
        }
      ],
      "stateMutability": "view",
      "type": "function"
    },
    {
      "inputs": [],
      "name": "renounceOwnership",
      "outputs": [],
      "stateMutability": "nonpayable",
      "type": "function"
    },
    {
      "inputs": [
        {
          "internalType": "address",
          "name": "from",
          "type": "address"
        },
        {
          "internalType": "address",
          "name": "to",
          "type": "address"
        },
        {
          "internalType": "uint256",
          "name": "tokenId",
          "type": "uint256"
        }
      ],
      "name": "safeTransferFrom",
      "outputs": [],
      "stateMutability": "nonpayable",
      "type": "function"
    },
    {
      "inputs": [
        {
          "internalType": "address",
          "name": "from",
          "type": "address"
        },
        {
          "internalType": "address",
          "name": "to",
          "type": "address"
        },
        {
          "internalType": "uint256",
          "name": "tokenId",
          "type": "uint256"
        },
        {
          "internalType": "bytes",
          "name": "data",
          "type": "bytes"
        }
      ],
      "name": "safeTransferFrom",
      "outputs": [],
      "stateMutability": "nonpayable",
      "type": "function"
    },
    {
      "inputs": [
        {
          "internalType": "address",
          "name": "operator",
          "type": "address"
        },
        {
          "internalType": "bool",
          "name": "approved",
          "type": "bool"
        }
      ],
      "name": "setApprovalForAll",
      "outputs": [],
      "stateMutability": "nonpayable",
      "type": "function"
    },
    {
      "inputs": [
        {
          "internalType": "string",
          "name": "_baseTokenURI",
          "type": "string"
        }
      ],
      "name": "setBaseTokenURI",
      "outputs": [],
      "stateMutability": "nonpayable",
      "type": "function"
    },
    {
      "inputs": [
        {
          "internalType": "bytes4",
          "name": "interfaceId",
          "type": "bytes4"
        }
      ],
      "name": "supportsInterface",
      "outputs": [
        {
          "internalType": "bool",
          "name": "",
          "type": "bool"
        }
      ],
      "stateMutability": "view",
      "type": "function"
    },
    {
      "inputs": [],
      "name": "symbol",
      "outputs": [
        {
          "internalType": "string",
          "name": "",
          "type": "string"
        }
      ],
      "stateMutability": "view",
      "type": "function"
    },
    {
      "inputs": [
        {
          "internalType": "uint256",
          "name": "tokenId",
          "type": "uint256"
        }
      ],
      "name": "tokenURI",
      "outputs": [
        {
          "internalType": "string",
          "name": "",
          "type": "string"
        }
      ],
      "stateMutability": "view",
      "type": "function"
    },
    {
      "inputs": [
        {
          "internalType": "uint256",
          "name": "",
          "type": "uint256"
        }
      ],
      "name": "tokenValue",
      "outputs": [
        {
          "internalType": "uint256",
          "name": "",
          "type": "uint256"
        }
      ],
      "stateMutability": "view",
      "type": "function"
    },
    {
      "inputs": [
        {
          "internalType": "address",
          "name": "from",
          "type": "address"
        },
        {
          "internalType": "address",
          "name": "to",
          "type": "address"
        },
        {
          "internalType": "uint256",
          "name": "tokenId",
          "type": "uint256"
        }
      ],
      "name": "transferFrom",
      "outputs": [],
      "stateMutability": "nonpayable",
      "type": "function"
    },
    {
      "inputs": [
        {
          "internalType": "address",
          "name": "newOwner",
          "type": "address"
        }
      ],
      "name": "transferOwnership",
      "outputs": [],
      "stateMutability": "nonpayable",
      "type": "function"
    },
    {
      "inputs": [
        {
          "internalType": "address payable",
          "name": "payee",
          "type": "address"
        }
      ],
      "name": "withdrawPayments",
      "outputs": [],
      "stateMutability": "nonpayable",
      "type": "function"
    }
  ],
  "bytecode": "0x60a060405242600a553480156200001557600080fd5b506040518060400160405280600481526020017f43697479000000000000000000000000000000000000000000000000000000008152506040518060400160405280600381526020017f435459000000000000000000000000000000000000000000000000000000000081525081600090805190602001906200009a9291906200023e565b508060019080519060200190620000b39291906200023e565b505050604051620000c490620002cf565b604051809103906000f080158015620000e1573d6000803e3d6000fd5b5073ffffffffffffffffffffffffffffffffffffffff1660808173ffffffffffffffffffffffffffffffffffffffff1660601b81525050620001386200012c6200017060201b60201c565b6200017860201b60201c565b6040518060a00160405280606281526020016200430f6062913960089080519060200190620001699291906200023e565b5062000361565b600033905090565b6000600660009054906101000a900473ffffffffffffffffffffffffffffffffffffffff16905081600660006101000a81548173ffffffffffffffffffffffffffffffffffffffff021916908373ffffffffffffffffffffffffffffffffffffffff1602179055508173ffffffffffffffffffffffffffffffffffffffff168173ffffffffffffffffffffffffffffffffffffffff167f8be0079c531659141344cd1fd0a4f28419497f9722a3daafe3b4186f6b6457e060405160405180910390a35050565b8280546200024c90620002fc565b90600052602060002090601f016020900481019282620002705760008555620002bc565b82601f106200028b57805160ff1916838001178555620002bc565b82800160010185558215620002bc579182015b82811115620002bb5782518255916020019190600101906200029e565b5b509050620002cb9190620002dd565b5090565b610bb7806200375883390190565b5b80821115620002f8576000816000905550600101620002de565b5090565b600060028204905060018216806200031557607f821691505b602082108114156200032c576200032b62000332565b5b50919050565b7f4e487b7100000000000000000000000000000000000000000000000000000000600052602260045260246000fd5b60805160601c6133d16200038760003960008181610ed1015261159a01526133d16000f3fe6080604052600436106101665760003560e01c80638da5cb5b116100d1578063cb9144911161008a578063e2982c2111610064578063e2982c2114610553578063e985e9c514610590578063ef2d1746146105cd578063f2fde38b146105f857610166565b8063cb914491146104ae578063d10424c7146104eb578063d547cfb71461052857610166565b80638da5cb5b1461039e578063902d55a5146103c957806395d89b41146103f4578063a22cb4651461041f578063b88d4fde14610448578063c87b56dd1461047157610166565b806331b3eb941161012357806331b3eb941461028b57806342842e0e146102b4578063449a52f8146102dd5780636352211e1461030d57806370a082311461034a578063715018a61461038757610166565b806301ffc9a71461016b57806306fdde03146101a8578063081812fc146101d3578063095ea7b31461021057806323b872dd1461023957806330176e1314610262575b600080fd5b34801561017757600080fd5b50610192600480360381019061018d9190612433565b610621565b60405161019f91906128cd565b60405180910390f35b3480156101b457600080fd5b506101bd610703565b6040516101ca91906128e8565b60405180910390f35b3480156101df57600080fd5b506101fa60048036038101906101f591906124c6565b610795565b604051610207919061284b565b60405180910390f35b34801561021c57600080fd5b50610237600480360381019061023291906123f7565b6107db565b005b34801561024557600080fd5b50610260600480360381019061025b91906122f1565b6108f3565b005b34801561026e57600080fd5b5061028960048036038101906102849190612485565b610953565b005b34801561029757600080fd5b506102b260048036038101906102ad919061228c565b610975565b005b3480156102c057600080fd5b506102db60048036038101906102d691906122f1565b610989565b005b6102f760048036038101906102f291906123f7565b6109a9565b6040516103049190612b0a565b60405180910390f35b34801561031957600080fd5b50610334600480360381019061032f91906124c6565b610aea565b604051610341919061284b565b60405180910390f35b34801561035657600080fd5b50610371600480360381019061036c9190612263565b610b9c565b60405161037e9190612b0a565b60405180910390f35b34801561039357600080fd5b5061039c610c54565b005b3480156103aa57600080fd5b506103b3610c68565b6040516103c0919061284b565b60405180910390f35b3480156103d557600080fd5b506103de610c92565b6040516103eb9190612b0a565b60405180910390f35b34801561040057600080fd5b50610409610c98565b60405161041691906128e8565b60405180910390f35b34801561042b57600080fd5b50610446600480360381019061044191906123bb565b610d2a565b005b34801561045457600080fd5b5061046f600480360381019061046a9190612340565b610d40565b005b34801561047d57600080fd5b50610498600480360381019061049391906124c6565b610da2565b6040516104a591906128e8565b60405180910390f35b3480156104ba57600080fd5b506104d560048036038101906104d091906124c6565b610e0a565b6040516104e29190612b0a565b60405180910390f35b3480156104f757600080fd5b50610512600480360381019061050d91906124c6565b610e22565b60405161051f9190612b0a565b60405180910390f35b34801561053457600080fd5b5061053d610e3f565b60405161054a91906128e8565b60405180910390f35b34801561055f57600080fd5b5061057a60048036038101906105759190612263565b610ecd565b6040516105879190612b0a565b60405180910390f35b34801561059c57600080fd5b506105b760048036038101906105b291906122b5565b610f7f565b6040516105c491906128cd565b60405180910390f35b3480156105d957600080fd5b506105e2611013565b6040516105ef9190612b0a565b60405180910390f35b34801561060457600080fd5b5061061f600480360381019061061a9190612263565b611024565b005b60007f80ac58cd000000000000000000000000000000000000000000000000000000007bffffffffffffffffffffffffffffffffffffffffffffffffffffffff1916827bffffffffffffffffffffffffffffffffffffffffffffffffffffffff191614806106ec57507f5b5e139f000000000000000000000000000000000000000000000000000000007bffffffffffffffffffffffffffffffffffffffffffffffffffffffff1916827bffffffffffffffffffffffffffffffffffffffffffffffffffffffff1916145b806106fc57506106fb826110a8565b5b9050919050565b60606000805461071290612d72565b80601f016020809104026020016040519081016040528092919081815260200182805461073e90612d72565b801561078b5780601f106107605761010080835404028352916020019161078b565b820191906000526020600020905b81548152906001019060200180831161076e57829003601f168201915b5050505050905090565b60006107a082611112565b6004600083815260200190815260200160002060009054906101000a900473ffffffffffffffffffffffffffffffffffffffff169050919050565b60006107e682610aea565b90508073ffffffffffffffffffffffffffffffffffffffff168373ffffffffffffffffffffffffffffffffffffffff161415610857576040517f08c379a000000000000000000000000000000000000000000000000000000000815260040161084e90612a8a565b60405180910390fd5b8073ffffffffffffffffffffffffffffffffffffffff1661087661115d565b73ffffffffffffffffffffffffffffffffffffffff1614806108a557506108a48161089f61115d565b610f7f565b5b6108e4576040517f08c379a00000000000000000000000000000000000000000000000000000000081526004016108db90612a0a565b60405180910390fd5b6108ee8383611165565b505050565b6109046108fe61115d565b8261121e565b610943576040517f08c379a000000000000000000000000000000000000000000000000000000000815260040161093a90612aca565b60405180910390fd5b61094e8383836112b3565b505050565b61095b61151a565b806008908051906020019061097192919061205d565b5050565b61097d61151a565b61098681611598565b50565b6109a483838360405180602001604052806000815250610d40565b505050565b6000806109b66007611626565b905061271081106109fc576040517f08c379a00000000000000000000000000000000000000000000000000000000081526004016109f390612aaa565b60405180910390fd5b823414610a3e576040517f08c379a0000000000000000000000000000000000000000000000000000000008152600401610a35906129ca565b60405180910390fd5b6000600a5442610a4e9190612c76565b9050610a5981611634565b601e811015610a9d576040517f08c379a0000000000000000000000000000000000000000000000000000000008152600401610a9490612aea565b60405180910390fd5b610aa760076116cd565b6000610ab36007611626565b9050610abf86826116e3565b84600960008381526020019081526020016000208190555042600a8190555080935050505092915050565b6000806002600084815260200190815260200160002060009054906101000a900473ffffffffffffffffffffffffffffffffffffffff169050600073ffffffffffffffffffffffffffffffffffffffff168173ffffffffffffffffffffffffffffffffffffffff161415610b93576040517f08c379a0000000000000000000000000000000000000000000000000000000008152600401610b8a90612a6a565b60405180910390fd5b80915050919050565b60008073ffffffffffffffffffffffffffffffffffffffff168273ffffffffffffffffffffffffffffffffffffffff161415610c0d576040517f08c379a0000000000000000000000000000000000000000000000000000000008152600401610c04906129ea565b60405180910390fd5b600360008373ffffffffffffffffffffffffffffffffffffffff1673ffffffffffffffffffffffffffffffffffffffff168152602001908152602001600020549050919050565b610c5c61151a565b610c666000611701565b565b6000600660009054906101000a900473ffffffffffffffffffffffffffffffffffffffff16905090565b61271081565b606060018054610ca790612d72565b80601f0160208091040260200160405190810160405280929190818152602001828054610cd390612d72565b8015610d205780601f10610cf557610100808354040283529160200191610d20565b820191906000526020600020905b815481529060010190602001808311610d0357829003601f168201915b5050505050905090565b610d3c610d3561115d565b83836117c7565b5050565b610d51610d4b61115d565b8361121e565b610d90576040517f08c379a0000000000000000000000000000000000000000000000000000000008152600401610d8790612aca565b60405180910390fd5b610d9c84848484611934565b50505050565b6060610dad82611112565b6000610db7611990565b90506000815111610dd75760405180602001604052806000815250610e02565b80610de184611a22565b604051602001610df2929190612827565b6040516020818303038152906040525b915050919050565b60096020528060005260406000206000915090505481565b600060096000838152602001908152602001600020549050919050565b60088054610e4c90612d72565b80601f0160208091040260200160405190810160405280929190818152602001828054610e7890612d72565b8015610ec55780601f10610e9a57610100808354040283529160200191610ec5565b820191906000526020600020905b815481529060010190602001808311610ea857829003601f168201915b505050505081565b60007f000000000000000000000000000000000000000000000000000000000000000073ffffffffffffffffffffffffffffffffffffffff1663e3a9db1a836040518263ffffffff1660e01b8152600401610f28919061284b565b60206040518083038186803b158015610f4057600080fd5b505afa158015610f54573d6000803e3d6000fd5b505050506040513d601f19601f82011682018060405250810190610f7891906124ef565b9050919050565b6000600560008473ffffffffffffffffffffffffffffffffffffffff1673ffffffffffffffffffffffffffffffffffffffff16815260200190815260200160002060008373ffffffffffffffffffffffffffffffffffffffff1673ffffffffffffffffffffffffffffffffffffffff16815260200190815260200160002060009054906101000a900460ff16905092915050565b600061101f6007611626565b905090565b61102c61151a565b600073ffffffffffffffffffffffffffffffffffffffff168173ffffffffffffffffffffffffffffffffffffffff16141561109c576040517f08c379a00000000000000000000000000000000000000000000000000000000081526004016110939061292a565b60405180910390fd5b6110a581611701565b50565b60007f01ffc9a7000000000000000000000000000000000000000000000000000000007bffffffffffffffffffffffffffffffffffffffffffffffffffffffff1916827bffffffffffffffffffffffffffffffffffffffffffffffffffffffff1916149050919050565b61111b81611bcf565b61115a576040517f08c379a000000000000000000000000000000000000000000000000000000000815260040161115190612a6a565b60405180910390fd5b50565b600033905090565b816004600083815260200190815260200160002060006101000a81548173ffffffffffffffffffffffffffffffffffffffff021916908373ffffffffffffffffffffffffffffffffffffffff160217905550808273ffffffffffffffffffffffffffffffffffffffff166111d883610aea565b73ffffffffffffffffffffffffffffffffffffffff167f8c5be1e5ebec7d5bd14f71427d1e84f3dd0314c0f7b2291e5b200ac8c7c3b92560405160405180910390a45050565b60008061122a83610aea565b90508073ffffffffffffffffffffffffffffffffffffffff168473ffffffffffffffffffffffffffffffffffffffff16148061126c575061126b8185610f7f565b5b806112aa57508373ffffffffffffffffffffffffffffffffffffffff1661129284610795565b73ffffffffffffffffffffffffffffffffffffffff16145b91505092915050565b8273ffffffffffffffffffffffffffffffffffffffff166112d382610aea565b73ffffffffffffffffffffffffffffffffffffffff1614611329576040517f08c379a00000000000000000000000000000000000000000000000000000000081526004016113209061294a565b60405180910390fd5b600073ffffffffffffffffffffffffffffffffffffffff168273ffffffffffffffffffffffffffffffffffffffff161415611399576040517f08c379a00000000000000000000000000000000000000000000000000000000081526004016113909061298a565b60405180910390fd5b6113a4838383611c3b565b6113af600082611165565b6001600360008573ffffffffffffffffffffffffffffffffffffffff1673ffffffffffffffffffffffffffffffffffffffff16815260200190815260200160002060008282546113ff9190612c76565b925050819055506001600360008473ffffffffffffffffffffffffffffffffffffffff1673ffffffffffffffffffffffffffffffffffffffff16815260200190815260200160002060008282546114569190612bef565b92505081905550816002600083815260200190815260200160002060006101000a81548173ffffffffffffffffffffffffffffffffffffffff021916908373ffffffffffffffffffffffffffffffffffffffff160217905550808273ffffffffffffffffffffffffffffffffffffffff168473ffffffffffffffffffffffffffffffffffffffff167fddf252ad1be2c89b69c2b068fc378daa952ba7f163c4a11628f55a4df523b3ef60405160405180910390a4611515838383611c40565b505050565b61152261115d565b73ffffffffffffffffffffffffffffffffffffffff16611540610c68565b73ffffffffffffffffffffffffffffffffffffffff1614611596576040517f08c379a000000000000000000000000000000000000000000000000000000000815260040161158d90612a4a565b60405180910390fd5b565b7f000000000000000000000000000000000000000000000000000000000000000073ffffffffffffffffffffffffffffffffffffffff166351cff8d9826040518263ffffffff1660e01b81526004016115f19190612866565b600060405180830381600087803b15801561160b57600080fd5b505af115801561161f573d6000803e3d6000fd5b5050505050565b600081600001549050919050565b6116ca816040516024016116489190612b0a565b6040516020818303038152906040527ff82c50f1000000000000000000000000000000000000000000000000000000007bffffffffffffffffffffffffffffffffffffffffffffffffffffffff19166020820180517bffffffffffffffffffffffffffffffffffffffffffffffffffffffff8381831617835250505050611c45565b50565b6001816000016000828254019250508190555050565b6116fd828260405180602001604052806000815250611c6e565b5050565b6000600660009054906101000a900473ffffffffffffffffffffffffffffffffffffffff16905081600660006101000a81548173ffffffffffffffffffffffffffffffffffffffff021916908373ffffffffffffffffffffffffffffffffffffffff1602179055508173ffffffffffffffffffffffffffffffffffffffff168173ffffffffffffffffffffffffffffffffffffffff167f8be0079c531659141344cd1fd0a4f28419497f9722a3daafe3b4186f6b6457e060405160405180910390a35050565b8173ffffffffffffffffffffffffffffffffffffffff168373ffffffffffffffffffffffffffffffffffffffff161415611836576040517f08c379a000000000000000000000000000000000000000000000000000000000815260040161182d906129aa565b60405180910390fd5b80600560008573ffffffffffffffffffffffffffffffffffffffff1673ffffffffffffffffffffffffffffffffffffffff16815260200190815260200160002060008473ffffffffffffffffffffffffffffffffffffffff1673ffffffffffffffffffffffffffffffffffffffff16815260200190815260200160002060006101000a81548160ff0219169083151502179055508173ffffffffffffffffffffffffffffffffffffffff168373ffffffffffffffffffffffffffffffffffffffff167f17307eab39ab6107e8899845ad3d59bd9653f200f220920489ca2b5937696c318360405161192791906128cd565b60405180910390a3505050565b61193f8484846112b3565b61194b84848484611cc9565b61198a576040517f08c379a00000000000000000000000000000000000000000000000000000000081526004016119819061290a565b60405180910390fd5b50505050565b60606008805461199f90612d72565b80601f01602080910402602001604051908101604052809291908181526020018280546119cb90612d72565b8015611a185780601f106119ed57610100808354040283529160200191611a18565b820191906000526020600020905b8154815290600101906020018083116119fb57829003601f168201915b5050505050905090565b60606000821415611a6a576040518060400160405280600181526020017f30000000000000000000000000000000000000000000000000000000000000008152509050611bca565b600082905060005b60008214611a9c578080611a8590612dd5565b915050600a82611a959190612c45565b9150611a72565b60008167ffffffffffffffff811115611ade577f4e487b7100000000000000000000000000000000000000000000000000000000600052604160045260246000fd5b6040519080825280601f01601f191660200182016040528015611b105781602001600182028036833780820191505090505b5090505b60008514611bc357600182611b299190612c76565b9150600a85611b389190612e1e565b6030611b449190612bef565b60f81b818381518110611b80577f4e487b7100000000000000000000000000000000000000000000000000000000600052603260045260246000fd5b60200101907effffffffffffffffffffffffffffffffffffffffffffffffffffffffffffff1916908160001a905350600a85611bbc9190612c45565b9450611b14565b8093505050505b919050565b60008073ffffffffffffffffffffffffffffffffffffffff166002600084815260200190815260200160002060009054906101000a900473ffffffffffffffffffffffffffffffffffffffff1673ffffffffffffffffffffffffffffffffffffffff1614159050919050565b505050565b505050565b60008151905060006a636f6e736f6c652e6c6f679050602083016000808483855afa5050505050565b611c788383611e60565b611c856000848484611cc9565b611cc4576040517f08c379a0000000000000000000000000000000000000000000000000000000008152600401611cbb9061290a565b60405180910390fd5b505050565b6000611cea8473ffffffffffffffffffffffffffffffffffffffff1661203a565b15611e53578373ffffffffffffffffffffffffffffffffffffffff1663150b7a02611d1361115d565b8786866040518563ffffffff1660e01b8152600401611d359493929190612881565b602060405180830381600087803b158015611d4f57600080fd5b505af1925050508015611d8057506040513d601f19601f82011682018060405250810190611d7d919061245c565b60015b611e03573d8060008114611db0576040519150601f19603f3d011682016040523d82523d6000602084013e611db5565b606091505b50600081511415611dfb576040517f08c379a0000000000000000000000000000000000000000000000000000000008152600401611df29061290a565b60405180910390fd5b805181602001fd5b63150b7a0260e01b7bffffffffffffffffffffffffffffffffffffffffffffffffffffffff1916817bffffffffffffffffffffffffffffffffffffffffffffffffffffffff191614915050611e58565b600190505b949350505050565b600073ffffffffffffffffffffffffffffffffffffffff168273ffffffffffffffffffffffffffffffffffffffff161415611ed0576040517f08c379a0000000000000000000000000000000000000000000000000000000008152600401611ec790612a2a565b60405180910390fd5b611ed981611bcf565b15611f19576040517f08c379a0000000000000000000000000000000000000000000000000000000008152600401611f109061296a565b60405180910390fd5b611f2560008383611c3b565b6001600360008473ffffffffffffffffffffffffffffffffffffffff1673ffffffffffffffffffffffffffffffffffffffff1681526020019081526020016000206000828254611f759190612bef565b92505081905550816002600083815260200190815260200160002060006101000a81548173ffffffffffffffffffffffffffffffffffffffff021916908373ffffffffffffffffffffffffffffffffffffffff160217905550808273ffffffffffffffffffffffffffffffffffffffff16600073ffffffffffffffffffffffffffffffffffffffff167fddf252ad1be2c89b69c2b068fc378daa952ba7f163c4a11628f55a4df523b3ef60405160405180910390a461203660008383611c40565b5050565b6000808273ffffffffffffffffffffffffffffffffffffffff163b119050919050565b82805461206990612d72565b90600052602060002090601f01602090048101928261208b57600085556120d2565b82601f106120a457805160ff19168380011785556120d2565b828001600101855582156120d2579182015b828111156120d15782518255916020019190600101906120b6565b5b5090506120df91906120e3565b5090565b5b808211156120fc5760008160009055506001016120e4565b5090565b600061211361210e84612b4a565b612b25565b90508281526020810184848401111561212b57600080fd5b612136848285612d30565b509392505050565b600061215161214c84612b7b565b612b25565b90508281526020810184848401111561216957600080fd5b612174848285612d30565b509392505050565b60008135905061218b81613328565b92915050565b6000813590506121a08161333f565b92915050565b6000813590506121b581613356565b92915050565b6000813590506121ca8161336d565b92915050565b6000815190506121df8161336d565b92915050565b600082601f8301126121f657600080fd5b8135612206848260208601612100565b91505092915050565b600082601f83011261222057600080fd5b813561223084826020860161213e565b91505092915050565b60008135905061224881613384565b92915050565b60008151905061225d81613384565b92915050565b60006020828403121561227557600080fd5b60006122838482850161217c565b91505092915050565b60006020828403121561229e57600080fd5b60006122ac84828501612191565b91505092915050565b600080604083850312156122c857600080fd5b60006122d68582860161217c565b92505060206122e78582860161217c565b9150509250929050565b60008060006060848603121561230657600080fd5b60006123148682870161217c565b93505060206123258682870161217c565b925050604061233686828701612239565b9150509250925092565b6000806000806080858703121561235657600080fd5b60006123648782880161217c565b94505060206123758782880161217c565b935050604061238687828801612239565b925050606085013567ffffffffffffffff8111156123a357600080fd5b6123af878288016121e5565b91505092959194509250565b600080604083850312156123ce57600080fd5b60006123dc8582860161217c565b92505060206123ed858286016121a6565b9150509250929050565b6000806040838503121561240a57600080fd5b60006124188582860161217c565b925050602061242985828601612239565b9150509250929050565b60006020828403121561244557600080fd5b6000612453848285016121bb565b91505092915050565b60006020828403121561246e57600080fd5b600061247c848285016121d0565b91505092915050565b60006020828403121561249757600080fd5b600082013567ffffffffffffffff8111156124b157600080fd5b6124bd8482850161220f565b91505092915050565b6000602082840312156124d857600080fd5b60006124e684828501612239565b91505092915050565b60006020828403121561250157600080fd5b600061250f8482850161224e565b91505092915050565b61252181612cbc565b82525050565b61253081612caa565b82525050565b61253f81612cce565b82525050565b600061255082612bac565b61255a8185612bc2565b935061256a818560208601612d3f565b61257381612f0b565b840191505092915050565b600061258982612bb7565b6125938185612bd3565b93506125a3818560208601612d3f565b6125ac81612f0b565b840191505092915050565b60006125c282612bb7565b6125cc8185612be4565b93506125dc818560208601612d3f565b80840191505092915050565b60006125f5603283612bd3565b915061260082612f1c565b604082019050919050565b6000612618602683612bd3565b915061262382612f6b565b604082019050919050565b600061263b602583612bd3565b915061264682612fba565b604082019050919050565b600061265e601c83612bd3565b915061266982613009565b602082019050919050565b6000612681602483612bd3565b915061268c82613032565b604082019050919050565b60006126a4601983612bd3565b91506126af82613081565b602082019050919050565b60006126c7602f83612bd3565b91506126d2826130aa565b604082019050919050565b60006126ea602983612bd3565b91506126f5826130f9565b604082019050919050565b600061270d603e83612bd3565b915061271882613148565b604082019050919050565b6000612730602083612bd3565b915061273b82613197565b602082019050919050565b6000612753602083612bd3565b915061275e826131c0565b602082019050919050565b6000612776601883612bd3565b9150612781826131e9565b602082019050919050565b6000612799602183612bd3565b91506127a482613212565b604082019050919050565b60006127bc601283612bd3565b91506127c782613261565b602082019050919050565b60006127df602e83612bd3565b91506127ea8261328a565b604082019050919050565b6000612802602683612bd3565b915061280d826132d9565b604082019050919050565b61282181612d26565b82525050565b600061283382856125b7565b915061283f82846125b7565b91508190509392505050565b60006020820190506128606000830184612527565b92915050565b600060208201905061287b6000830184612518565b92915050565b60006080820190506128966000830187612527565b6128a36020830186612527565b6128b06040830185612818565b81810360608301526128c28184612545565b905095945050505050565b60006020820190506128e26000830184612536565b92915050565b60006020820190508181036000830152612902818461257e565b905092915050565b60006020820190508181036000830152612923816125e8565b9050919050565b600060208201905081810360008301526129438161260b565b9050919050565b600060208201905081810360008301526129638161262e565b9050919050565b6000602082019050818103600083015261298381612651565b9050919050565b600060208201905081810360008301526129a381612674565b9050919050565b600060208201905081810360008301526129c381612697565b9050919050565b600060208201905081810360008301526129e3816126ba565b9050919050565b60006020820190508181036000830152612a03816126dd565b9050919050565b60006020820190508181036000830152612a2381612700565b9050919050565b60006020820190508181036000830152612a4381612723565b9050919050565b60006020820190508181036000830152612a6381612746565b9050919050565b60006020820190508181036000830152612a8381612769565b9050919050565b60006020820190508181036000830152612aa38161278c565b9050919050565b60006020820190508181036000830152612ac3816127af565b9050919050565b60006020820190508181036000830152612ae3816127d2565b9050919050565b60006020820190508181036000830152612b03816127f5565b9050919050565b6000602082019050612b1f6000830184612818565b92915050565b6000612b2f612b40565b9050612b3b8282612da4565b919050565b6000604051905090565b600067ffffffffffffffff821115612b6557612b64612edc565b5b612b6e82612f0b565b9050602081019050919050565b600067ffffffffffffffff821115612b9657612b95612edc565b5b612b9f82612f0b565b9050602081019050919050565b600081519050919050565b600081519050919050565b600082825260208201905092915050565b600082825260208201905092915050565b600081905092915050565b6000612bfa82612d26565b9150612c0583612d26565b9250827fffffffffffffffffffffffffffffffffffffffffffffffffffffffffffffffff03821115612c3a57612c39612e4f565b5b828201905092915050565b6000612c5082612d26565b9150612c5b83612d26565b925082612c6b57612c6a612e7e565b5b828204905092915050565b6000612c8182612d26565b9150612c8c83612d26565b925082821015612c9f57612c9e612e4f565b5b828203905092915050565b6000612cb582612d06565b9050919050565b6000612cc782612d06565b9050919050565b60008115159050919050565b60007fffffffff0000000000000000000000000000000000000000000000000000000082169050919050565b600073ffffffffffffffffffffffffffffffffffffffff82169050919050565b6000819050919050565b82818337600083830152505050565b60005b83811015612d5d578082015181840152602081019050612d42565b83811115612d6c576000848401525b50505050565b60006002820490506001821680612d8a57607f821691505b60208210811415612d9e57612d9d612ead565b5b50919050565b612dad82612f0b565b810181811067ffffffffffffffff82111715612dcc57612dcb612edc565b5b80604052505050565b6000612de082612d26565b91507fffffffffffffffffffffffffffffffffffffffffffffffffffffffffffffffff821415612e1357612e12612e4f565b5b600182019050919050565b6000612e2982612d26565b9150612e3483612d26565b925082612e4457612e43612e7e565b5b828206905092915050565b7f4e487b7100000000000000000000000000000000000000000000000000000000600052601160045260246000fd5b7f4e487b7100000000000000000000000000000000000000000000000000000000600052601260045260246000fd5b7f4e487b7100000000000000000000000000000000000000000000000000000000600052602260045260246000fd5b7f4e487b7100000000000000000000000000000000000000000000000000000000600052604160045260246000fd5b6000601f19601f8301169050919050565b7f4552433732313a207472616e7366657220746f206e6f6e20455243373231526560008201527f63656976657220696d706c656d656e7465720000000000000000000000000000602082015250565b7f4f776e61626c653a206e6577206f776e657220697320746865207a65726f206160008201527f6464726573730000000000000000000000000000000000000000000000000000602082015250565b7f4552433732313a207472616e736665722066726f6d20696e636f72726563742060008201527f6f776e6572000000000000000000000000000000000000000000000000000000602082015250565b7f4552433732313a20746f6b656e20616c7265616479206d696e74656400000000600082015250565b7f4552433732313a207472616e7366657220746f20746865207a65726f2061646460008201527f7265737300000000000000000000000000000000000000000000000000000000602082015250565b7f4552433732313a20617070726f766520746f2063616c6c657200000000000000600082015250565b7f5472616e73616374696f6e2076616c756520646964206e6f7420657175616c2060008201527f7468652076616c756520676976656e0000000000000000000000000000000000602082015250565b7f4552433732313a2061646472657373207a65726f206973206e6f74206120766160008201527f6c6964206f776e65720000000000000000000000000000000000000000000000602082015250565b7f4552433732313a20617070726f76652063616c6c6572206973206e6f7420746f60008201527f6b656e206f776e6572206e6f7220617070726f76656420666f7220616c6c0000602082015250565b7f4552433732313a206d696e7420746f20746865207a65726f2061646472657373600082015250565b7f4f776e61626c653a2063616c6c6572206973206e6f7420746865206f776e6572600082015250565b7f4552433732313a20696e76616c696420746f6b656e2049440000000000000000600082015250565b7f4552433732313a20617070726f76616c20746f2063757272656e74206f776e6560008201527f7200000000000000000000000000000000000000000000000000000000000000602082015250565b7f4d617820737570706c7920726561636865640000000000000000000000000000600082015250565b7f4552433732313a2063616c6c6572206973206e6f7420746f6b656e206f776e6560008201527f72206e6f7220617070726f766564000000000000000000000000000000000000602082015250565b7f4e6565642061746c6561737420323420686f757220676170206265747765656e60008201527f206d696e74730000000000000000000000000000000000000000000000000000602082015250565b61333181612caa565b811461333c57600080fd5b50565b61334881612cbc565b811461335357600080fd5b50565b61335f81612cce565b811461336a57600080fd5b50565b61337681612cda565b811461338157600080fd5b50565b61338d81612d26565b811461339857600080fd5b5056fea2646970667358221220383ec48c1142491c594f48fa86de9d5c97ea02b05f505ef1b4a3a9a23b350d2a64736f6c63430008040033608060405234801561001057600080fd5b5061002d61002261003260201b60201c565b61003a60201b60201c565b6100fe565b600033905090565b60008060009054906101000a900473ffffffffffffffffffffffffffffffffffffffff169050816000806101000a81548173ffffffffffffffffffffffffffffffffffffffff021916908373ffffffffffffffffffffffffffffffffffffffff1602179055508173ffffffffffffffffffffffffffffffffffffffff168173ffffffffffffffffffffffffffffffffffffffff167f8be0079c531659141344cd1fd0a4f28419497f9722a3daafe3b4186f6b6457e060405160405180910390a35050565b610aaa8061010d6000396000f3fe6080604052600436106100555760003560e01c806351cff8d91461005a578063715018a6146100835780638da5cb5b1461009a578063e3a9db1a146100c5578063f2fde38b14610102578063f340fa011461012b575b600080fd5b34801561006657600080fd5b50610081600480360381019061007c91906106a3565b610147565b005b34801561008f57600080fd5b50610098610253565b005b3480156100a657600080fd5b506100af610267565b6040516100bc91906107ae565b60405180910390f35b3480156100d157600080fd5b506100ec60048036038101906100e7919061067a565b610290565b6040516100f99190610849565b60405180910390f35b34801561010e57600080fd5b506101296004803603810190610124919061067a565b6102d9565b005b6101456004803603810190610140919061067a565b61035d565b005b61014f610412565b6000600160008373ffffffffffffffffffffffffffffffffffffffff1673ffffffffffffffffffffffffffffffffffffffff1681526020019081526020016000205490506000600160008473ffffffffffffffffffffffffffffffffffffffff1673ffffffffffffffffffffffffffffffffffffffff16815260200190815260200160002081905550610201818373ffffffffffffffffffffffffffffffffffffffff1661049090919063ffffffff16565b8173ffffffffffffffffffffffffffffffffffffffff167f7084f5476618d8e60b11ef0d7d3f06914655adb8793e28ff7f018d4c76d505d5826040516102479190610849565b60405180910390a25050565b61025b610412565b6102656000610584565b565b60008060009054906101000a900473ffffffffffffffffffffffffffffffffffffffff16905090565b6000600160008373ffffffffffffffffffffffffffffffffffffffff1673ffffffffffffffffffffffffffffffffffffffff168152602001908152602001600020549050919050565b6102e1610412565b600073ffffffffffffffffffffffffffffffffffffffff168173ffffffffffffffffffffffffffffffffffffffff161415610351576040517f08c379a0000000000000000000000000000000000000000000000000000000008152600401610348906107c9565b60405180910390fd5b61035a81610584565b50565b610365610412565b600034905080600160008473ffffffffffffffffffffffffffffffffffffffff1673ffffffffffffffffffffffffffffffffffffffff16815260200190815260200160002060008282546103b99190610880565b925050819055508173ffffffffffffffffffffffffffffffffffffffff167f2da466a7b24304f47e87fa2e1e5a81b9831ce54fec19055ce277ca2f39ba42c4826040516104069190610849565b60405180910390a25050565b61041a610648565b73ffffffffffffffffffffffffffffffffffffffff16610438610267565b73ffffffffffffffffffffffffffffffffffffffff161461048e576040517f08c379a000000000000000000000000000000000000000000000000000000000815260040161048590610829565b60405180910390fd5b565b804710156104d3576040517f08c379a00000000000000000000000000000000000000000000000000000000081526004016104ca90610809565b60405180910390fd5b60008273ffffffffffffffffffffffffffffffffffffffff16826040516104f990610799565b60006040518083038185875af1925050503d8060008114610536576040519150601f19603f3d011682016040523d82523d6000602084013e61053b565b606091505b505090508061057f576040517f08c379a0000000000000000000000000000000000000000000000000000000008152600401610576906107e9565b60405180910390fd5b505050565b60008060009054906101000a900473ffffffffffffffffffffffffffffffffffffffff169050816000806101000a81548173ffffffffffffffffffffffffffffffffffffffff021916908373ffffffffffffffffffffffffffffffffffffffff1602179055508173ffffffffffffffffffffffffffffffffffffffff168173ffffffffffffffffffffffffffffffffffffffff167f8be0079c531659141344cd1fd0a4f28419497f9722a3daafe3b4186f6b6457e060405160405180910390a35050565b600033905090565b60008135905061065f81610a46565b92915050565b60008135905061067481610a5d565b92915050565b60006020828403121561068c57600080fd5b600061069a84828501610650565b91505092915050565b6000602082840312156106b557600080fd5b60006106c384828501610665565b91505092915050565b6106d5816108d6565b82525050565b60006106e860268361086f565b91506106f382610953565b604082019050919050565b600061070b603a8361086f565b9150610716826109a2565b604082019050919050565b600061072e601d8361086f565b9150610739826109f1565b602082019050919050565b600061075160208361086f565b915061075c82610a1a565b602082019050919050565b6000610774600083610864565b915061077f82610a43565b600082019050919050565b6107938161091a565b82525050565b60006107a482610767565b9150819050919050565b60006020820190506107c360008301846106cc565b92915050565b600060208201905081810360008301526107e2816106db565b9050919050565b60006020820190508181036000830152610802816106fe565b9050919050565b6000602082019050818103600083015261082281610721565b9050919050565b6000602082019050818103600083015261084281610744565b9050919050565b600060208201905061085e600083018461078a565b92915050565b600081905092915050565b600082825260208201905092915050565b600061088b8261091a565b91506108968361091a565b9250827fffffffffffffffffffffffffffffffffffffffffffffffffffffffffffffffff038211156108cb576108ca610924565b5b828201905092915050565b60006108e1826108fa565b9050919050565b60006108f3826108fa565b9050919050565b600073ffffffffffffffffffffffffffffffffffffffff82169050919050565b6000819050919050565b7f4e487b7100000000000000000000000000000000000000000000000000000000600052601160045260246000fd5b7f4f776e61626c653a206e6577206f776e657220697320746865207a65726f206160008201527f6464726573730000000000000000000000000000000000000000000000000000602082015250565b7f416464726573733a20756e61626c6520746f2073656e642076616c75652c207260008201527f6563697069656e74206d61792068617665207265766572746564000000000000602082015250565b7f416464726573733a20696e73756666696369656e742062616c616e6365000000600082015250565b7f4f776e61626c653a2063616c6c6572206973206e6f7420746865206f776e6572600082015250565b50565b610a4f816108d6565b8114610a5a57600080fd5b50565b610a66816108e8565b8114610a7157600080fd5b5056fea2646970667358221220f5d7a234895c04d4200ce86e5834c8b0302a224c119c606c7bf67b406336fa7164736f6c6343000804003368747470733a2f2f626166796265696871677a3766717275697a77687372786c78776376736d616e6b6437777468356c723564327a667a6d336d6d63736a37777676752e697066732e6e667473746f726167652e6c696e6b2f6d657461646174612f",
  "linkReferences": {},
  "deployedLinkReferences": {}
}